S01200002E2F72756E2F6D61696E2E737265638C
S11300002DC0000046C0000044C000007FC20000B4
S113001040C000003EC000003CC0000054C20000CC
S113002038C0000036C0000034C0000032C00000F8
S113003030C000002EC000002CC000002AC0000008
S113004028C0000026C0000024C0000022C0000018
S113005020C000001EC000001CC0000011241FBEF0
S1130060CFEFD4E0DEBFCDBF11E0A0E0B1E0E6E524
S1130070F6E002C005900D92A831B107D9F723E04C
S1130080A8E1B1E001C01D92AF33B207E1F7F2D0AD
S1130090E0C2B6CF880F991FFC01EC55FF4F408199
S11300A0518164307105ECF1CB010497EEEEF0E080
S11300B00297A0F59F01DF015496842F8F7060FF93
S11300C017C090819F70908390818295807F892B47
S11300D080832B5F3F4FA217B307F9F052954295E7
S11300E04F7045275F704527842F8F70F901E9CF42
S11300F09081907F90839081892B80832B5F3F4FE9
S1130100A217B30751F0529542954F7045275F707F
S11301104527842F8F70F901EBCF0895ECEEF0E0C2
S1130120C9CF62307105D4F3EDEEF0E0C3CF0F9385
S11301301F93CF93DF9300D000D000D0CDB7DEB7AC
S11301406B837C838D839E838A0140931801109373
S1130150190146305105A8F424E630E040E050E0AF
S1130160F9D12AE030E040E050E0F4D12A30310502
S113017040F4C901C096B8018DDF009118011091B7
S113018019011A82198289819A81883E93405CF40C
S113019029813A812F5F3F4F3A83298329813A810C
S11301A0283E3340ACF30F5F1F4F009318011093A8
S11301B0190106301105D0F46B817C818D819E81FB
S11301C02AE030E040E050E0C5D16A30710570F4B7
S11301D0CB01C096B8010F900F900F900F900F9025
S11301E00F90DF91CF911F910F9154CF0F900F90EB
S11301F00F900F900F900F90DF91CF911F910F915F
S11302000895EC01A12CB12C4501839483E0881658
S11302109104A104B10424F182E0C82ED12CE12C74
S1130220F12C0AC08FEFC81AD80AE80AF80A8C140D
S11302309D04AE04BF04A1F0B401C5019601A70159
S113024089D1672B682B692B69F78FEF881A980A75
S1130250A80AB80A83E088169104A104B104E4F65C
S1130260AE01B401C50163DF8FEF881A980AA80AAA
S1130270B80AF0CF26D060E070E081E091E033D09E
S113028083E090E0BEDFCF93DF9300D0CDB7DEB73D
S113029089839A838091000190910101069698D1F7
S11302A0892B29F00F900F90DF91CF9108958981C8
S11302B09A81809300019093010161E070E00696B9
S11302C0A7D1E1E6F0E080E88083108287EB809399
S11302D0E50087E08093E6008FE08093E70080EC00
S11302E08093E4000895CF93DF9300D0CDB7DEB7B9
S11302F0F89420911A0130911B01232B09F472C048
S1130300209102013091030129833A83211531059B
S1130310B1F1F90124813581209302013093030165
S1130320808391836283738314821582CF0106963E
S11303304FD1019729F189819A8187599F4FE9818A
S1130340FA81868B978B808F918F14821582E0912E
S11303501C01F0911D01309709F47BC0DF0104807A
S1130360F581E02D3097D1F789819A8114968D9388
S11303709D9378940F900F90DF91CF910895FFCFC4
S11303807894A0910001B0910101ED91FD918D91BE
S11303909D910995F8948091000190910101FC01CF
S11303A014821582E0910201F0910301309709F45F
S11303B05DC0DF010480F581E02D3097D1F71496FC
S11303C08D939D9380911C0190911D01009709F4D8
S11303D04CC0FC012481358120931C0130931D0104
S11303E052DFA9CF28EF31E020938F0130939001A1
S11303F025E632E02093FC013093FD0122ED32E04A
S11304002093690230936A021092D6021092D702A6
S113041020E825B92DBB20936C0010928500109222
S1130420840022E020936F00E0E8F0E020EC2083D9
S113043028E0208325E02093810026E831E03093F2
S113044089002093880021E020931A0110921B0157
S113045057CF29813A8120931C0130931D01789450
S11304600F900F90DF91CF910895FFCF80930201F9
S113047090930301A7CF789420910001309101015A
S1130480F9011482158280911C0190911D01FC01D7
S1130490009799F0DF010480F581E02D3097D1F7C2
S11304A014962D933D93FC012481358120931C01E6
S11304B030931D01E8DEF89408952115310509F4FF
S11304C0FFCFC901F0CF1F920F920FB60F921124E4
S11304D02F933F934F935F936F937F938F939F9348
S11304E0AF93BF93EF93FF93C6DFFF91EF91BF915B
S11304F0AF919F918F917F916F915F914F913F91B8
S11305002F910F900FBE0F901F9018951F920F926E
S11305100FB60F9211242F933F934F935F936F93D2
S11305207F938F939F93AF93BF93EF93FF931F9BFF
S1130530A2DFFF91EF91BF91AF919F918F917F9136
S11305406F915F914F913F912F910F900FBE0F903C
S11305501F901895052E97FB16F400940FD057FDA5
S113056005D014D007FC02D046F408C0509540953D
S1130570309521953F4F4F4F5F4F0895909580954B
S1130580709561957F4F8F4F9F4F0895A1E21A2E6A
S1130590AA1BBB1BFD010DC0AA1FBB1FEE1FFF1F23
S11305A0A217B307E407F50720F0A21BB30BE40B73
S11305B0F50B661F771F881F991F1A9469F76095BA
S11305C07095809590959B01AC01BD01CF01089574
S11305D0DC012D923D924D925D926D927D928D92B1
S11305E09D92AD92BD92CD92DD92ED92FD920D93CE
S11305F01D93CD93DD93FF91EF918DB78D938EB7BE
S11306008D938FB78D93ED93FD9388279927099444
S1130610DC01CB0181309105811D2D903D904D90E1
S11306205D906D907D908D909D90AD90BD90CD909E
S1130630DD90ED90FD900D911D91CD91DD91ED91A9
S1130640FD910D90F894FEBF0FBEEDBFED91FD91AD
S10906500994F894FFCFA9
S11306561E018B0151151001111E111B500B411B5C
S10B0666411F1101510F511B4A
S9030000FC
