:100000002DC0000046C0000044C0000042C00000F7
:1000100040C000003EC000003CC000003AC00000EC
:1000200038C0000036C0000034C0000032C00000FC
:1000300030C000002EC000002CC000002AC000000C
:1000400028C0000026C0000024C0000022C000001C
:1000500020C000001EC000001CC0000011241FBEF4
:10006000CFEFD4E0DEBFCDBF11E0A0E0B1E0EEE421
:10007000F5E002C005900D92A831B107D9F723E051
:10008000A8E1B1E001C01D92AD33B207E1F7D4D0D1
:100090005CC2B6CF880F991FFC01EC55FF4F408121
:1000A000518164307105ECF1CB010497EEEEF0E084
:1000B0000297A0F59F01DF015496842F8F7060FF97
:1000C00017C090819F70908390818295807F892B4B
:1000D00080832B5F3F4FA217B307F9F052954295EB
:1000E0004F7045275F704527842F8F70F901E9CF46
:1000F0009081907F90839081892B80832B5F3F4FED
:10010000A217B30751F0529542954F7045275F7083
:100110004527842F8F70F901EBCF0895ECEEF0E0C6
:10012000C9CF62307105D4F3EDEEF0E0C3CFEC013E
:10013000A12CB12C450183948C010F5F1F4F7501D9
:100140002AE0C22ED12C302E212E83E08816910475
:10015000A104B10424F182E0482E512C612C712CB1
:100160000AC08FEF481A580A680A780A48145904D6
:100170006A047B04A1F0B401C5019201A30166D118
:10018000672B682B692B69F78FEF881A980AA80AE2
:10019000B80A83E088169104A104B104E4F6C630DD
:1001A000D10578F5B401C50124E630E040E050E027
:1001B0004DD19601A7014AD1C901C096BE016ADF9F
:1001C000632C722C0630110549F1B401C50196016A
:1001D000A7013CD1CB01C096B3015CDF0FD18FEFFB
:1001E000881A980AA80AB80A82E088169104A1041D
:1001F000B10409F0B0CF612C712CC630D10590F25A
:10020000E4CF0630110518F4612C712CDECFF6D046
:100210008FEF881A980AA80AB80ABBCFEFD08FEFE1
:10022000881A980AA80AB80A82E088169104A104DC
:10023000B10409F090CFB6CF26D060E070E087E936
:1002400090E033D083E090E072DFCF93DF9300D073
:10025000CDB7DEB789839A83809100019091010127
:10026000069632D1892B29F00F900F90DF91CF9114
:10027000089589819A81809300019093010161E042
:1002800070E0069641D1E1E6F0E080E880831082DC
:1002900087EB8093E50087E08093E6008FE0809312
:1002A000E70080EC8093E4000895CF93DF9300D0C3
:1002B000CDB7DEB7F8942091180130911901232BA6
:1002C000D9F426EF31E020938D0130938E0123E69F
:1002D00032E02093FA013093FB0120ED32E02093CD
:1002E0006702309368021092D4021092D50221E086
:1002F00020931801109219012091020130910301FD
:1003000029833A8321153105B1F1F9012481358121
:10031000209302013093030180839183628373836E
:1003200014821582CF010696CFD0019729F18981D9
:100330009A8187599F4FE981FA81868B978B808FAD
:10034000918F14821582E0911A01F0911B01309770
:1003500009F442C0DF010480F581E02D3097D1F728
:1003600089819A8114968D939D9378940F900F9024
:10037000DF91CF910895FFCF7894A0910001B091C3
:100380000101ED91FD918D919D910995F8948091D8
:10039000000190910101FC0114821582E09102019B
:1003A000F0910301309729F1DF010480F581E02D00
:1003B0003097D1F714968D939D9380911A01909167
:1003C0001B010097A9F0FC012481358120931A01BB
:1003D00030931B013ADFABCF29813A8120931A0178
:1003E00030931B0178940F900F90DF91CF91089577
:1003F000FFCF8093020190930301DFCF7894209187
:10040000000130910101F9011482158280911A01D5
:1004100090911B01FC01009799F0DF010480F581A8
:10042000E02D3097D1F714962D933D93FC01248154
:10043000358120931A0130931B0107DFF89408954A
:100440002115310509F4FFCFC901F0CF052E97FB27
:1004500016F400940FD057FD05D014D007FC02D03D
:1004600046F408C050954095309521953F4F4F4F29
:100470005F4F089590958095709561957F4F8F4F50
:100480009F4F0895A1E21A2EAA1BBB1BFD010DC0B0
:10049000AA1FBB1FEE1FFF1FA217B307E407F50734
:1004A00020F0A21BB30BE40BF50B661F771F881F10
:1004B000991F1A9469F760957095809590959B01A6
:1004C000AC01BD01CF010895DC012D923D924D920A
:1004D0005D926D927D928D929D92AD92BD92CD92E4
:1004E000DD92ED92FD920D931D93CD93DD93FF91DF
:1004F000EF918DB78D938EB78D938FB78D93ED93CD
:10050000FD93882799270994DC01CB01813091055F
:10051000811D2D903D904D905D906D907D908D90C2
:100520009D90AD90BD90CD90DD90ED90FD900D91A2
:100530001D91CD91DD91ED91FD910D90F894FEBF4F
:0E0540000FBEEDBFED91FD910994F894FFCF31
:10054E001C01890151151001111E111B500B411B6D
:08055E00411F1101510F511B57
:00000001FF
