:100000002DC0000046C0000044C00000DAC200005D
:1000100040C000003EC000003CC00000AFC2000075
:1000200038C0000036C0000034C0000032C00000FC
:1000300030C000002EC000002CC000002AC000000C
:1000400028C0000026C0000024C0000022C000001C
:1000500020C000001EC000001CC0000011241FBEF4
:10006000CFEFD4E0DEBFCDBF11E0A0E0B1E0ECE027
:10007000F7E002C005900D92A831B107D9F723E04F
:10008000A8E1B1E001C01D92A334B207E1F7F1D0BD
:100090003BC3B6CF880F991FFC01EC55FF4F408141
:1000A000518164307105ECF1CB010497EEEEF0E084
:1000B0000297A0F59F01DF015496842F8F7060FF97
:1000C00017C090819F70908390818295807F892B4B
:1000D00080832B5F3F4FA217B307F9F052954295EB
:1000E0004F7045275F704527842F8F70F901E9CF46
:1000F0009081907F90839081892B80832B5F3F4FED
:10010000A217B30751F0529542954F7045275F7083
:100110004527842F8F70F901EBCF0895ECEEF0E0C6
:10012000C9CF62307105D4F3EDEEF0E0C3CF0F9389
:100130001F93CF93DF9300D000D000D0CDB7DEB7B0
:100140006B837C838D839E838A0188E191E0B4D1A7
:1001500000931C0110931D0106301105C8F46B813A
:100160007C818D819E8124E630E040E050E04DD2DC
:100170002AE030E040E050E048D22A30310540F437
:10018000C901C096B80186DF00911C0110911D01C4
:100190001A82198289819A81883E93405CF4298170
:1001A0003A812F5F3F4F3A83298329813A81283E44
:1001B0003340ACF30F5F1F4F00931C0110931D01E0
:1001C0000630110580F46B817C818D819E812AE04F
:1001D00030E040E050E019D26A30710520F4CB01E4
:1001E000C096B80157DF88E191E00F900F900F9013
:1001F0000F900F900F90DF91CF911F910F9193C1AE
:10020000EC01A12CB12C4501839483E08816910464
:10021000A104B10424F182E0C82ED12CE12CF12CF0
:100220000AC08FEFC81AD80AE80AF80A8C149D048D
:10023000AE04BF04A1F0B401C5019601A701E5D148
:10024000672B682B692B69F78FEF881A980AA80A21
:10025000B80A83E088169104A104B104E4F6AE0163
:10026000B401C50164DF8FEF881A980AA80AB80A9A
:10027000F0CF26D060E070E080E091E033D083E002
:1002800090E0BEDFCF93DF9300D0CDB7DEB7898398
:100290009A8380910001909101010696F4D1892BF7
:1002A00029F00F900F90DF91CF91089589819A8165
:1002B000809300019093010161E070E0069603D203
:1002C000E1E6F0E080E88083108287EB8093E50030
:1002D00087E08093E6008FE08093E70080EC8093D6
:1002E000E4000895CF93DF9300D0CDB7DEB7F89444
:1002F00020911E0130911F01232B09F472C020911F
:1003000002013091030129833A8321153105B1F1AE
:10031000F901248135812093020130930301808308
:1003200091836283738314821582CF010696ABD1C9
:10033000019729F189819A8187599F4FE981FA8133
:10034000868B978B808F918F14821582E09120018C
:10035000F0912101309709F478C0DF010480F58124
:10036000E02D3097D1F789819A8114968D939D93D2
:1003700078940F900F90DF91CF910895FFCF7894EC
:10038000A0910001B0910101ED91FD918D919D91A0
:100390000995F8948091000190910101FC0114826B
:1003A0001582E0910201F0910301309709F45AC0DF
:1003B000DF010480F581E02D3097D1F714968D93FD
:1003C0009D938091200190912101009709F449C0EB
:1003D000FC0124813581209320013093210152DFDB
:1003E000A9CF2CEF31E0209393013093940129E6BB
:1003F00032E0209300023093010226ED32E0209398
:100400006D0230936E021092DA021092DB0220E845
:1004100025B92DBB20936C001092850010928400AA
:1004200022E020936F0020EC209380002DE02093A9
:10043000810027E831E0309389002093880021E093
:1004400020931E0110921F015ACF29813A812093D7
:1004500020013093210178940F900F90DF91CF917C
:100460000895FFCF8093020190930301AACF2091BA
:10047000000130910101F90114821582809120015F
:1004800090912101FC01009789F0DF010480F58142
:10049000E02D3097D1F714962D933D93FC012481E4
:1004A00035812093200130932101ECCE21153105B7
:1004B00009F4FFCFC901F2CFDC01F8948D919D9131
:1004C0001297892B29F481E08D931D9278940895D9
:1004D0008091000190910101FC0114821582129615
:1004E000ED91FD9114973097D1F0DF010480F581F3
:1004F000E02D3097D1F714968D939D938091200134
:1005000090912101009751F0FC01248135812093C5
:10051000200130932101B6DE78940895FFCF129622
:100520008D939D93EBCFF894FC01228133812115AB
:10053000310501F1F90144815581FC014283538366
:10054000F90114821582E0912001F0912101309788
:1005500059F0DF010480F581E02D3097D1F7149632
:100560002D933D9378940895209320013093210199
:100570007894089510821182789408951F920F92B2
:100580000FB60F9211242F933F934F935F936F9366
:100590007F938F939F93AF93BF93EF93FF9367DF07
:1005A000FF91EF91BF91AF919F918F917F916F914B
:1005B0005F914F913F912F910F900FBE0F901F9021
:1005C00018951F920F920FB60F9211242F933F93FD
:1005D0004F935F936F937F938F939F93AF93BF934B
:1005E000EF93FF931F9B43DFFF91EF91BF91AF917B
:1005F0009F918F917F916F915F914F913F912F913B
:100600000F900FBE0F901F901895052E97FB16F4B4
:1006100000940FD057FD05D014D007FC02D046F44B
:1006200008C050954095309521953F4F4F4F5F4FF3
:10063000089590958095709561957F4F8F4F9F4F4E
:100640000895A1E21A2EAA1BBB1BFD010DC0AA1F13
:10065000BB1FEE1FFF1FA217B307E407F50720F02B
:10066000A21BB30BE40BF50B661F771F881F991FA6
:100670001A9469F760957095809590959B01AC01EF
:10068000BD01CF010895DC012D923D924D925D9206
:100690006D927D928D929D92AD92BD92CD92DD92A2
:1006A000ED92FD920D931D93CD93DD93FF91EF910C
:1006B0008DB78D938EB78D938FB78D93ED93FD93FB
:1006C000882799270994DC01CB0181309105811D90
:1006D0002D903D904D905D906D907D908D909D9072
:1006E000AD90BD90CD90DD90ED90FD900D911D9160
:1006F000CD91DD91ED91FD910D90F894FEBF0FBE6F
:0C070000EDBFED91FD910994F894FFCF3E
:10070C0022018F0151151001111E111B500B411BA1
:08071C00411F1101511F511B87
:00000001FF
