:100000002DC0000046C0000044C0000083C10000B5
:1000100040C000003EC000003CC0000056C10000CF
:1000200038C0000036C0000034C0000032C00000FC
:1000300030C000002EC000002CC000002AC000000C
:1000400028C0000026C0000024C0000022C000001C
:1000500020C000001EC000001CC0000011241FBEF4
:10006000CFEFD4E0DEBFCDBF11E0A0E0B1E0EAEF1A
:10007000F6E002C005900D92A831B107D9F723E050
:10008000A8E1B1E001C01D92AD34B207E1F769D13A
:1000900032C3B6CF8CE191E04DD281E08093FE0077
:1000A0008CE191E047D21092FE008CE191E042D2C7
:1000B000F4CF880F991FFC01EC55FF4F408151810F
:1000C00064307105ECF1CB010497EEEEF0E002979D
:1000D000A0F59F01DF015496842F8F7060FF17C039
:1000E00090819F70908390818295807F892B8083FF
:1000F0002B5F3F4FA217B307F9F0529542954F700F
:1001000045275F704527842F8F70F901E9CF9081D3
:10011000907F90839081892B80832B5F3F4FA21724
:10012000B30751F0529542954F7045275F704527B0
:10013000842F8F70F901EBCF0895ECEEF0E0C9CF7A
:1001400062307105D4F3EDEEF0E0C3CF0F931F934F
:10015000CF93DF9300D000D000D0CDB7DEB76B8354
:100160007C838D839E838A0180E291E0E3D10093BA
:1001700024011093250106301105C8F46B817C81A0
:100180008D819E8124E630E040E050E035D22AE0C7
:1001900030E040E050E030D22A30310540F4C9016F
:1001A000C096B80186DF00912401109125011A82C2
:1001B000198289819A81883E93405CF429813A8131
:1001C0002F5F3F4F3A83298329813A81283E33406C
:1001D000ACF30F5F1F4F00932401109325010630ED
:1001E000110580F46B817C818D819E812AE030E055
:1001F00040E050E001D26A30710520F4CB01C09696
:10020000B80157DF80E291E00F900F900F900F90B0
:100210000F900F90DF91CF911F910F91B6C180E8A1
:1002200085B9C0E088E191E085D1DAD1D4D1BC01B3
:1002300080E090E044E050E089DF8091EE00897F2B
:10024000C11105C082608093EE00C1E0EBCF8460F5
:100250008093EE00C0E0E6CFEC01A12CB12C45016B
:10026000839483E088169104A104B10424F182E010
:10027000C82ED12CE12CF12C0AC08FEFC81AD80A55
:10028000E80AF80A8C149D04AE04BF04A1F0B4017E
:10029000C5019601A701B0D1672B682B692B69F7BF
:1002A0008FEF881A980AA80AB80A83E08816910482
:1002B000A104B104E4F6AE01B401C50147DF8FEF3C
:1002C000881A980AA80AB80AF0CF1F920F920FB6A0
:1002D0000F9211242F933F934F935F936F937F93CC
:1002E0008F939F93AF93BF93EF93FF938CE191E034
:1002F0004CD1FF91EF91BF91AF919F918F917F91E1
:100300006F915F914F913F912F910F900FBE0F9082
:100310001F9018951F920F920FB60F9211242F93D2
:100320003F934F935F936F937F938F939F93AF937D
:10033000BF93EF93FF931F9903C088E191E025D10C
:10034000FF91EF91BF91AF919F918F917F916F91AD
:100350005F914F913F912F910F900FBE0F901F9083
:10036000189588E191E0E6D08CE191E0E3D0E1E6F8
:10037000F0E080E88083108287EB8093E50087E0DF
:100380008093E6008FE08093E70080EC8093E400A8
:1003900060E070E08AE490E026D060E070E08FE0FA
:1003A00091E021D080E090E057DFCF93DF9300D041
:1003B000CDB7DEB789839A838091000190910101C6
:1003C000069658D1892B29F00F900F90DF91CF918D
:1003D000089589819A81809300019093010161E0E1
:1003E00070E0069667D1CF93DF9300D0CDB7DEB72C
:1003F000F8942091280130912901232B09F466C03B
:10040000209102013091030129833A83211531059E
:1004100099F1F90124813581209302013093030180
:10042000808391836283738314821582CF01069641
:1004300021D1019711F189819A8187599F4FE981D3
:10044000FA81868B978B808F918FE0910001F091DC
:10045000010190912A0180912B0194838583E0937F
:100460002A01F0932B0189819A819FDF78940F9064
:100470000F90DF91CF910895FFCF7894A091000164
:10048000B0910101ED91FD918D919D910995F894A7
:10049000E0910001F091010190910201809103012E
:1004A00094838583E0930201F093030180912A01F4
:1004B00090912B01009749F0FC0124813581209314
:1004C0002A0130932B0171DFB6CFFFCF26E032E057
:1004D00020939D0130939E0123E732E020930A028E
:1004E00030930B0220EE32E02093770230937802B3
:1004F0001092E4021092E50220E825B92DBB20936A
:100500006C00109285001092840022E020936F000E
:1005100020EC209380002DE02093810026E43FE032
:10052000309389002093880021E0209328011092C5
:10053000290166CFFC01F89480819181892B29F4EF
:1005400081E08083118278940895A0910001B09198
:10055000010114961D921D929281838112979D93A1
:100560008C931597A283B38380912A0190912B01DC
:10057000009751F0FC012481358120932A013093AA
:100580002B0113DF78940895FFCFF894DC011296C5
:10059000ED91FD9114973097C9F024813581129621
:1005A0002D933D93A0910001B091010190912A01FA
:1005B00080912B0114969D938C931597A0932A01FB
:1005C000B0932B01CF01F1DE78940895FC011082E5
:1005D00011827894089580912601909127010895C1
:1005E00080912601909127019C012F5F3F4F30930E
:1005F0002701209326010895052E97FB16F40094F9
:100600000FD057FD05D014D007FC02D046F408C027
:1006100050954095309521953F4F4F4F5F4F08952E
:1006200090958095709561957F4F8F4F9F4F08955E
:10063000A1E21A2EAA1BBB1BFD010DC0AA1FBB1FE6
:10064000EE1FFF1FA217B307E407F50720F0A21B58
:10065000B30BE40BF50B661F771F881F991F1A94C5
:1006600069F760957095809590959B01AC01BD01EF
:10067000CF010895DC012D923D924D925D926D92D5
:100680007D928D929D92AD92BD92CD92DD92ED9232
:10069000FD920D931D93CD93DD93FF91EF918DB757
:1006A0008D938EB78D938FB78D93ED93FD938827A0
:1006B00099270994DC01CB0181309105811D2D9092
:1006C0003D904D905D906D907D908D909D90AD9002
:1006D000BD90CD90DD90ED90FD900D911D91CD914F
:1006E000DD91ED91FD910D90F894FEBF0FBEEDBF31
:0A06F000ED91FD910994F894FFCFFD
:1006FA002C01990151151001111E111B500B411BA0
:08070A00411F1101511F511B99
:00000001FF
