:100000002DC0000037C1000087C10000D7C100002B
:1000100027C2000077C200003EC0000040C70000B9
:100020003AC00000EBC60000BFC200000FC30000D2
:100030005FC30000AFC30000FFC300004FC4000057
:100040009FC40000EFC400003FC500008FC5000042
:10005000DFC500002FC600007FC6000011241FBEB0
:10006000CFEFD4E0DEBFCDBF11E0A0E0B1E0E0E82B
:10007000FFE102C005900D92AC35B107D9F724E03D
:10008000ACE5B1E001C01D92A33BB207E1F70E94CD
:10009000F00E0C94BE0FB4CFCF93DF9300D000D0FE
:1000A000CDB7DEB78FEC93E02FEA34E0FC01709718
:1000B00080839183409682179307C1F710929F0423
:1000C0001092A00488E693E080934B0390934C0336
:1000D00085E893E08093680390936903E2EAF3E094
:1000E000E0938503F09386031082118287E292E009
:1000F0008B839C83EBE4F3E0E983FA8389819A8123
:1001000006960E947D0F8B819C81E981FA81868B06
:10011000978B808F918F85EE99E0838F948F1482D7
:100120001582EB81FC81E05AFF4FEB83FC838981D0
:100130009A814D9689839A838F5B9340F9F610924A
:10014000AE011092AF011092B2011092B301109261
:10015000B0011092B101E1E6F0E080E88083108206
:10016000109285001092840084E08093810081E0E9
:1001700080936F000F900F900F900F90DF91CF91B1
:100180000895CF93DF9300D0CDB7DEB789839A83EC
:10019000809100019091010106960E947D0F892BAC
:1001A00029F00F900F90DF91CF91089589819A8166
:1001B000809300019093010161E070E006960E9437
:1001C0009D0FEF92FF920F931F93CF93DF9300D079
:1001D00000D000D0CDB7DEB7E091AC01F091AD0119
:1001E000309709F180910401909105010097D9F0B1
:1001F0002091020130910301D90112960D90BC911A
:10020000A02DAD83BE831097D9F0E680F7800085DE
:10021000118516964D915D916D917D91E416F506CF
:10022000060717076CF00F900F900F900F900F902C
:100230000F90DF91CF911F910F91FF90EF90089554
:10024000DC014D915D9140930401509305013E9373
:100250002E9380930201909303010F900F900F90C3
:100260000F900F900F90DF91CF911F910F91FF9002
:10027000EF9087CF1F920F920FB60F9211242F93FA
:100280003F934F935F936F937F938F939F93AF931E
:10029000BF93EF93FF932091A4013091A50180912A
:1002A000840090918500D9018093A6019093A701C5
:1002B000A093A801B093A901B09B0FC080918400C6
:1002C000909185002F5F3F4FD9018093A6019093B5
:1002D000A7012093A801B093A901E0918001F091BA
:1002E0008101309739F060E070E080915C0190917D
:1002F0005D01099566DFFF91EF91BF91AF919F91ED
:100300008F917F916F915F914F913F912F910F90BE
:100310000FBE0F901F9018951F920F920FB60F925D
:1003200011242F933F934F935F936F937F938F93FA
:100330009F93AF93BF93EF93FF932091A4013091CC
:10034000A5018091840090918500D9018093A60138
:100350009093A701A093A801B093A901B09B0FC0EF
:1003600080918400909185002F5F3F4FD901809349
:10037000A6019093A7012093A801B093A901E09151
:100380008201F0918301309739F061E070E0809153
:100390005E0190915F01099514DFFF91EF91BF918C
:1003A000AF919F918F917F916F915F914F913F910D
:1003B0002F910F900FBE0F901F9018951F920F92C4
:1003C0000FB60F9211242F933F934F935F936F9328
:1003D0007F938F939F93AF93BF93EF93FF9320915E
:1003E000A4013091A5018091840090918500D901EC
:1003F0008093A6019093A701A093A801B093A901AF
:10040000B09B0FC080918400909185002F5F3F4F7B
:10041000D9018093A6019093A7012093A801B093DE
:10042000A901E0918401F0918501309739F062E0F3
:1004300070E080916001909161010995C2DEFF91A9
:10044000EF91BF91AF919F918F917F916F915F914C
:100450004F913F912F910F900FBE0F901F901895C5
:100460001F920F920FB60F9211242F933F934F9329
:100470005F936F937F938F939F93AF93BF93EF930C
:10048000FF932091A4013091A50180918400909167
:100490008500D9018093A6019093A701A093A8019C
:1004A000B093A901B09B0FC080918400909185000A
:1004B0002F5F3F4FD9018093A6019093A70120930E
:1004C000A801B093A901E0918601F09187013097CE
:1004D00039F063E070E080916201909163010995C9
:1004E00070DEFF91EF91BF91AF919F918F917F91BE
:1004F0006F915F914F913F912F910F900FBE0F9091
:100500001F9018951F920F920FB60F9211242F93E0
:100510003F934F935F936F937F938F939F93AF938B
:10052000BF93EF93FF932091A4013091A501809197
:10053000840090918500D9018093A6019093A70132
:10054000A093A801B093A901B09B0FC08091840033
:10055000909185002F5F3F4FD9018093A601909322
:10056000A7012093A801B093A901E0918801F0911F
:100570008901309739F064E070E0809164019091D6
:10058000650109951EDEFF91EF91BF91AF919F919B
:100590008F917F916F915F914F913F912F910F902C
:1005A0000FBE0F901F9018951F920F920FB60F92CB
:1005B00011242F933F934F935F936F937F938F9368
:1005C0009F93AF93BF93EF93FF932091A40130913A
:1005D000A5018091840090918500D9018093A601A6
:1005E0009093A701A093A801B093A901B09B0FC05D
:1005F00080918400909185002F5F3F4FD9018093B7
:10060000A6019093A7012093A801B093A901E091BE
:100610008A01F0918B01309739F065E070E08091AC
:100620006601909167010995CCDDFF91EF91BF9133
:10063000AF919F918F917F916F915F914F913F917A
:100640002F910F900FBE0F901F9018951F920F9231
:100650000FB60F9211242F933F934F935F936F9395
:100660007F938F939F93AF93BF93EF93FF932091CB
:10067000A4013091A5018091840090918500D90159
:100680008093A6019093A701A093A801B093A9011C
:10069000B09B0FC080918400909185002F5F3F4FE9
:1006A000D9018093A6019093A7012093A801B0934C
:1006B000A901E0918C01F0918D01309739F066E04D
:1006C00070E0809168019091690109957ADDFF9150
:1006D000EF91BF91AF919F918F917F916F915F91BA
:1006E0004F913F912F910F900FBE0F901F90189533
:1006F0001F920F920FB60F9211242F933F934F9397
:100700005F936F937F938F939F93AF93BF93EF9379
:10071000FF932091A4013091A501809184009091D4
:100720008500D9018093A6019093A701A093A80109
:10073000B093A901B09B0FC0809184009091850077
:100740002F5F3F4FD9018093A6019093A70120937B
:10075000A801B093A901E0918E01F0918F0130972B
:1007600039F067E070E080916A0190916B01099522
:1007700028DDFF91EF91BF91AF919F918F917F9174
:100780006F915F914F913F912F910F900FBE0F90FE
:100790001F9018951F920F920FB60F9211242F934E
:1007A0003F934F935F936F937F938F939F93AF93F9
:1007B000BF93EF93FF932091A4013091A501809105
:1007C000840090918500D9018093A6019093A701A0
:1007D000A093A801B093A901B09B0FC080918400A1
:1007E000909185002F5F3F4FD9018093A601909390
:1007F000A7012093A801B093A901E0919001F09185
:100800009101309739F068E070E080916C0190912F
:100810006D010995D6DCFF91EF91BF91AF919F914A
:100820008F917F916F915F914F913F912F910F9099
:100830000FBE0F901F9018951F920F920FB60F9238
:1008400011242F933F934F935F936F937F938F93D5
:100850009F93AF93BF93EF93FF932091A4013091A7
:10086000A5018091840090918500D9018093A60113
:100870009093A701A093A801B093A901B09B0FC0CA
:1008800080918400909185002F5F3F4FD901809324
:10089000A6019093A7012093A801B093A901E0912C
:1008A0009201F0919301309739F069E070E0809106
:1008B0006E0190916F01099584DCFF91EF91BF91DA
:1008C000AF919F918F917F916F915F914F913F91E8
:1008D0002F910F900FBE0F901F9018951F920F929F
:1008E0000FB60F9211242F933F934F935F936F9303
:1008F0007F938F939F93AF93BF93EF93FF93209139
:10090000A4013091A5018091840090918500D901C6
:100910008093A6019093A701A093A801B093A90189
:10092000B09B0FC080918400909185002F5F3F4F56
:10093000D9018093A6019093A7012093A801B093B9
:10094000A901E0919401F0919501309739F06AE0A6
:1009500070E08091700190917101099532DCFF91F6
:10096000EF91BF91AF919F918F917F916F915F9127
:100970004F913F912F910F900FBE0F901F901895A0
:100980001F920F920FB60F9211242F933F934F9304
:100990005F936F937F938F939F93AF93BF93EF93E7
:1009A000FF932091A4013091A50180918400909142
:1009B0008500D9018093A6019093A701A093A80177
:1009C000B093A901B09B0FC08091840090918500E5
:1009D0002F5F3F4FD9018093A6019093A7012093E9
:1009E000A801B093A901E0919601F0919701309789
:1009F00039F06BE070E0809172019091730109957C
:100A0000E0DBFF91EF91BF91AF919F918F917F912B
:100A10006F915F914F913F912F910F900FBE0F906B
:100A20001F9018951F920F920FB60F9211242F93BB
:100A30003F934F935F936F937F938F939F93AF9366
:100A4000BF93EF93FF932091A4013091A501809172
:100A5000840090918500D9018093A6019093A7010D
:100A6000A093A801B093A901B09B0FC0809184000E
:100A7000909185002F5F3F4FD9018093A6019093FD
:100A8000A7012093A801B093A901E0919801F091EA
:100A90009901309739F06CE070E080917401909189
:100AA000750109958EDBFF91EF91BF91AF919F91F9
:100AB0008F917F916F915F914F913F912F910F9007
:100AC0000FBE0F901F9018951F920F920FB60F92A6
:100AD00011242F933F934F935F936F937F938F9343
:100AE0009F93AF93BF93EF93FF932091A401309115
:100AF000A5018091840090918500D9018093A60181
:100B00009093A701A093A801B093A901B09B0FC037
:100B100080918400909185002F5F3F4FD901809391
:100B2000A6019093A7012093A801B093A901E09199
:100B30009A01F0919B01309739F06DE070E080915F
:100B400076019091770109953CDBFF91EF91BF9180
:100B5000AF919F918F917F916F915F914F913F9155
:100B60002F910F900FBE0F901F9018951F920F920C
:100B70000FB60F9211242F933F934F935F936F9370
:100B80007F938F939F93AF93BF93EF93FF932091A6
:100B9000A4013091A5018091840090918500D90134
:100BA0008093A6019093A701A093A801B093A901F7
:100BB000B09B0FC080918400909185002F5F3F4FC4
:100BC000D9018093A6019093A7012093A801B09327
:100BD000A901E0919C01F0919D01309739F06EE000
:100BE00070E080917801909179010995EADAFF919E
:100BF000EF91BF91AF919F918F917F916F915F9195
:100C00004F913F912F910F900FBE0F901F9018950D
:100C10001F920F920FB60F9211242F933F934F9371
:100C20005F936F937F938F939F93AF93BF93EF9354
:100C3000FF932091A4013091A501809184009091AF
:100C40008500D9018093A6019093A701A093A801E4
:100C5000B093A901B09B0FC0809184009091850052
:100C60002F5F3F4FD9018093A6019093A701209356
:100C7000A801B093A901E0919E01F0919F013097E6
:100C800039F06FE070E080917A0190917B010995D5
:100C900098DAFF91EF91BF91AF919F918F917F91E2
:100CA0006F915F914F913F912F910F900FBE0F90D9
:100CB0001F9018951F920F920FB60F9211242F9329
:100CC0003F934F935F936F937F938F939F93AF93D4
:100CD000BF93EF93FF932091A4013091A5018091E0
:100CE000840090918500D9018093A6019093A7017B
:100CF000A093A801B093A901B09B0FC0809184007C
:100D0000909185002F5F3F4FD9018093A60190936A
:100D1000A7012093A801B093A901E091A001F0914F
:100D2000A101309739F060E170E080917C019091F1
:100D30007D01099546DAFF91EF91BF91AF919F91A7
:100D40008F917F916F915F914F913F912F910F9074
:100D50000FBE0F901F9018951F920F920FB60F9213
:100D600011242F933F934F935F936F937F938F93B0
:100D70009F93AF93BF93EF93FF932091A401309182
:100D8000A5018091840090918500D9018093A601EE
:100D90009093A701A093A801B093A901B09B0FC0A5
:100DA00080918400909185002F5F3F4FD9018093FF
:100DB000A6019093A7012093A801B093A901E09107
:100DC000A201F091A301309739F061E170E08091C8
:100DD0007E0190917F010995F4D9FF91EF91BF9128
:100DE000AF919F918F917F916F915F914F913F91C3
:100DF0002F910F900FBE0F901F9018951F921FB646
:100E00001F9211242F933F934F935F936F937F9380
:100E10008F939F93EF93FF938091A4019091A501ED
:100E200001968093A4019093A501E091AA01F0910D
:100E3000AB01309739F04281538164817581861707
:100E4000970799F080916F008D7F80936F00FF91DD
:100E5000EF919F918F917F916F915F914F913F9112
:100E60002F911F901FBE1F901895CA0120918400DA
:100E700030918500421B530B4130510551F0909346
:100E800089008093880080916F00826080936F005A
:100E9000DECF80918400909185000196F0CF1F9263
:100EA0000F920FB60F921124CF92DF92EF92FF9222
:100EB0002F933F934F935F936F937F938F939F9362
:100EC000AF93BF93CF93DF93EF93FF938091A401F0
:100ED0009091A501C0908400D09085007C01B09BCA
:100EE00006C0C0908400D090850001967C012091BE
:100EF000AA013091AB012115310509F442C0F90175
:100F000082819381A481B581C816D906EA06FB06C1
:100F10000CF45AC0D9018D919D9112978093AA012A
:100F20009093AB01E091AC01F091AD01309709F4E1
:100F300065C016964D915D916D917D91C0E0D0E0B8
:100F400006C080819181EF010097C1F1FC0186818B
:100F50009781A085B185481759076A077B078CF7E9
:100F6000D901ED93FD93209761F52093AC01309367
:100F7000AD012091AA013091AB012115310509F095
:100F8000BECF80916F008D7F80936F001AD9FF9143
:100F9000EF91DF91CF91BF91AF919F918F917F9111
:100FA0006F915F914F913F912F91FF90EF90DF9064
:100FB000CF900F900FBE0F901F901895D9011D92E2
:100FC0001D922883398393CF2091A4013091A501EC
:100FD0002A173B07B1F69C0140918400509185008F
:100FE000841B950B019771F0309389002093880042
:100FF00080916F00826080936F00C8CFD9011D92ED
:101000001D92B3CF20918400309185002F5F3F4F18
:10101000EBCF4F925F926F927F92BF92CF92DF920F
:10102000EF92FF920F931F93CF93DF9329013A0121
:101030004FB7F894C0910601D0910701209709F4A9
:10104000C7C047FBBB24B7F828813981209306012C
:10105000309307010A871B87EC86FD86CE86DF86E4
:1010600047FD7BC00091A6011091A7012091A80126
:101070003091A901AB01BC01400F511F621F731FCA
:101080004A835B836C837D83141415041604170450
:101090002CF08FEF582E452C32017694CA01DB01DB
:1010A000840D951DA61DB71D8E839F83A887B987C4
:1010B0002091A4013091A501C0908400D0908500BA
:1010C000B09B06C0C0908400D09085002F5F3F4F3A
:1010D0007901C416D506E606F7060CF084C0E09147
:1010E000AA01F091AB0120E030E0309739F4D9C08B
:1010F000808191819F010097E1F1FC0182819381C0
:10110000A481B581481759076A077B078CF7E883E4
:10111000F9832115310579F5C093AA01D093AB016C
:101120008091A4019091A50186179707C1F1809144
:101130006F008D7F80936F00B1109BC0CE01DF9157
:10114000CF911F910F91FF90EF90DF90CF90BF90C4
:101150007F906F905F904F900895E0910001F09123
:1011600001010280F381E02D028113812481358108
:1011700081CF18821982D901CD93DD93E091AA0124
:10118000F091AB01309799F242815381648175816E
:101190008091A4019091A5018617970741F6CA0195
:1011A0002091840030918500421B530B4130510542
:1011B00029F4809184009091850001969093890094
:1011C0008093880080916F00826080936F00B4CF1D
:1011D0008FEF8093EC008093ED008093EE0081E030
:1011E00083BF8895FDCFE091AC01F091AD0100E0A7
:1011F00010E0309741F458C0208131818F012115D2
:101200003105C9F1F90146815781608571858417DF
:101210009507A607B70784F7E883F9830115110539
:1012200061F5C093AC01D093AD01B11409F486CF40
:1012300080910401909105010097D9F0E09102019D
:10124000F09103012091AC013091AD0142815381B5
:10125000D90116960D911D912D913D91DA011696A9
:101260004D915D916D917D91041715072607370704
:1012700044F0789463CF18821982F801C083D18337
:10128000D4CFDC012D913D912093040130930501D1
:10129000FE93EE9380930201909303010E94C1009C
:1012A000E8CF1882198238CF18821982BACFEF920C
:1012B000FF921F93CF93DF9300D000D000D0CDB723
:1012C000DEB77C0169837A834B835C831FB7107818
:1012D000F894FC01A081B1818091000190910101FD
:1012E000109719F458C0A081B1811496ED91FD9129
:1012F00016973097C1F78A179B0709F45EC011153E
:1013000009F45EC0F701228133812115310519F0FE
:10131000F90114821582F70182839383FC01E48230
:10132000F582CD010E94C100E0910001F091010120
:1013300082819381892B09F43CC0D701ED93FD9301
:10134000D70112968D919D91019709F078946B8148
:101350007C81C701E981FA81099589839B838FB7D5
:10136000F894D7011D921D928D919D911497823012
:101370009105B0F4111509F0789489819B810F9043
:101380000F900F900F900F900F90DF91CF911F91C2
:10139000FF90EF900895808391831115C1F2D0CF13
:1013A00012961D921D92FC01148215820E94C100AA
:1013B000E1CF789419821B82E0CF111509F078945F
:1013C000FFEFF9832FEF2B83D8CFC091AC01D091E1
:1013D000AD01209709F468C0E0910001F09101018E
:1013E000888199818093AC019093AD01C283D383AE
:1013F00078944E855F856C857D858A859B8557DFD2
:101400008FB7F894809106019091070188839983A2
:10141000C0930601D0930701E0910201F09103010E
:1014200080819181C091AC01D091AD012097B9F03C
:10143000DC0112962D913D912115310569F24E8105
:101440005F8168857985D90116960D911D912D9141
:101450003D9104171507260737070CF0BDCF809381
:101460000201909303018091040190910501808312
:101470009183E0930401F0930501A0910201B091E2
:10148000030102C0A081B1811496ED91FD911697E0
:101490003097C1F7CD010E94C100C091AC01D0913D
:1014A000AD01209709F098CF8FEF8093EC008093E7
:1014B000ED008093EE0081E083BF8895FDCFDC01D5
:1014C0004FB7F894E091AA01F091AB0180E090E071
:1014D000309741F420C020813181CF0121153105A1
:1014E000D1F0F901AE17BF07B1F72D913D911297D9
:1014F000009779F1FC01208331838091060190915E
:1015000007018D939D931297A0930601B093070155
:1015100047FD1DC00895E091AC01F091AD0120E0C0
:1015200030E0309739F41AC0808191819F01009793
:10153000A9F0FC01AE17BF07B9F78D919D911297E5
:101540002115310579F1F90180839183D6CF789403
:1015500008952093AA013093AB01CFCFE09102010F
:10156000F09103012091000130910101309731F495
:10157000CFCF0190F081E02D309751F22E173F0729
:10158000C1F3828193818A179B0799F764817581E2
:101590001A968D919D911C976817790751F71282C1
:1015A0001382ABCF8093AC019093AD01A6CF4231B3
:1015B000A0F42FB7F89450E0440F551FFA01E45AF5
:1015C000FE4F8083918340585E4FFA0160837183A0
:1015D00041E0FC014283138227FF08957894089527
:1015E0008C017B016A018FB7F8940E944C007894BB
:1015F000E114F10431F040E050E09A01B901C90171
:1016000008DD8FB7F8940E94E100789481E083BFF1
:101610008895FDCFCF92DF92EF92FF920F931F93A9
:10162000CF93DF9300D000D000D0CDB7DEB78D834D
:101630009E83FC014285538584859585268137816B
:10164000121613060CF05EC021E064817581672BD1
:1016500009F051C0ED81FE812483158263EB7BE0AC
:1016600026DEED81FE816681778188EE93E0CBD323
:101670002DE730E0DB01F6D397FD3FC09B01AC01C5
:1016800055954795379527955595479537952795BE
:1016900029833A834B835C83ED81FE818685978520
:1016A000009729F00CDFED81FE8116861786C12C8C
:1016B000D12C8AE0E82E8BE0F82E0D811E81960158
:1016C000A60169817A818B819C81A3DCED81FE81F9
:1016D0008687978780E090E00F900F900F900F9093
:1016E0000F900F90DF91CF911F910F91FF90EF908E
:1016F000DF90CF90089520E0ADCF6D5F7F4F8F4F8B
:101700009F4FBCCFED81FE811482158267EE7BE096
:10171000CEDDE0CFFC0186819781833691051CF4F4
:101720000196868397830895FC0186819781181618
:1017300019061CF40197868397830895FC0186811E
:101740009781009739F08087918780E090E08683C9
:101750009783089580859185868397830895FC01FA
:10176000868197810895CF92DF92EF92FF920F9337
:101770001F93CF93DF930F92CDB7DEB769832AE033
:10178000C22ED12C33EBE32E3BE0F32E8C0140E054
:1017900050E09A01C90165E37CE03BDC6EB181E079
:1017A00090E0098002C0880F991F0A94E2F7682729
:1017B0006EB90F90DF91CF911F910F91FF90EF9035
:1017C000DF90CF9008958DB180658DB908952EB1C9
:1017D00081E001C0880F6A95EAF7809582238EB96F
:1017E0000895FC01908581E09827908790E0089506
:1017F000FC01808590E00895FC01208540E050E0E8
:101800006FEA7BE0211569F08481958150DDBC0190
:10181000990F990B892F40E050E065D280E090E06D
:1018200008958681978143DDBC01990F990B892F1B
:1018300044E050E058D280E090E00895CF92DF92EB
:10184000EF92FF920F931F93FC0104811581C12C2D
:10185000D12C8AEDE82E8CE0F82E9601A601B60177
:10186000C601D7DBC6011F910F91FF90EF90DF906B
:10187000CF900895CF92DF92EF92FF920F931F9334
:10188000FC0104811581C12CD12C81E6E82E8DE06C
:10189000F82E9601A601B601C601BBDBC6011F9159
:1018A0000F91FF90EF90DF90CF900895CF92DF924D
:1018B000EF92FF920F931F93CF93DF9300D000D04E
:1018C000CDB7DEB789839A836B837C8383B190E045
:1018D0000B8002C0959587950A94E2F780FD24C09D
:1018E0006730710581F18B819C81069709F43DC0B9
:1018F000C12CD12C8CEFE82E8BE0F82E0EE111E0FC
:101900009601A601B601C60184DBCB80DC8096E59A
:10191000E92E9CE0F92E09811A8140E050E09A01FD
:10192000C9016AE678E175DB80E090E00F900F90E6
:101930000F900F90DF91CF911F910F91FF90EF903B
:10194000DF90CF900895E981FA810481158141E00B
:10195000C42ED12C54E9E52E5BE0F52E40E050E09A
:101960009A01B901C90155DBC3CFE981FA8104812C
:10197000158121E0C22ED12C3AE8E32E3BE0F32E74
:1019800040E050E09A01B901C90143DBB1CF85B114
:10199000806D85B98EB18C608EB98DB3806C8DBB36
:1019A000ECE6F0E08081806D8083EBE680818C60E6
:1019B00080830895CF92DF92EF92FF920F931F934F
:1019C000CF93DF93EC011F9929C00C811D8171E039
:1019D000C72ED12CE4E9EE2EEBE0FE2E40E050E0E5
:1019E0009A01B901C90115DBC12CFCEFEF2EFBE018
:1019F000FF2E0EE111E09601A601B601C60109DB3A
:101A0000A7E0CA2EB6E5EB2EBCE0FB2E8E0140E02F
:101A100050E09A01C90169E07DE3FBDA1E9B0DC02D
:101A20001C9B36C080E090E0DF91CF911F910F9119
:101A3000FF90EF90DF90CF9008950C811D8121E001
:101A4000C22ED12C3AE8E32E3BE0F32E40E050E0EA
:101A50009A01B901C901DDDAC12C4CEFE42E4BE04B
:101A6000F42E0EE111E09601A601B601C601D1DA0D
:101A700056E0C52E66E5E62E6CE0F62E8E0140E0BF
:101A800050E09A01C90169E07DE3C3DA1C99CACF2D
:101A90000C811D81C12CD12C8EE9E82E8BE0F82E13
:101AA0009601A601B601C601B4DA9CEFE92E9BE0CF
:101AB000F92E0EE111E09601A601B601C601A9DAE0
:101AC000B1CFCF92DF92EF92FF920F931F93CF93FC
:101AD000DF9300D0CDB7DEB789839A83629B0FC0B6
:101AE000639B4DC080E090E00F900F90DF91CF910D
:101AF0001F910F91FF90EF90DF90CF90089540E0FD
:101B000050E068EF7BE08EE191E0D1DB019751F38B
:101B100040E050E068EF7BE08EE191E0C8DBE981D6
:101B2000FA81892B09F46AC080859185E981FA815F
:101B300084839583C12CD12C31EFE32E3BE0F32E2F
:101B40000EE111E09601A601B601C60162DAA60116
:101B500068EF7BE0C801ABDB9C0181E0232B09F43B
:101B600080E0B1D02CEFE22E2BE0F22E0EE111E05E
:101B70009601A601B601C6014CDA6399B3CF40E0E5
:101B800050E068EF7BE08EE191E091DB892B09F476
:101B9000A9CF40E050E068EF7BE08EE191E087DB89
:101BA000E981FA81892B69F586819781E981FA813A
:101BB00084839583C12CD12C91EFE92E9BE0F92EE3
:101BC0000EE111E09601A601B601C60122DAA601D6
:101BD00068EF7BE0C8016BDB9C0181E0232B09F4FB
:101BE00080E071D08CEFE82E8BE0F82E0EE111E052
:101BF0009601A601B601C6010CDA74CF86819781E1
:101C000095CF80859185D2CF880F991FFC01E95B24
:101C1000FE4F4081518164307105ECF1CB01049796
:101C2000EEEEF0E00297A0F59F01DF015496842FBD
:101C30008F7060FF17C090819F7090839081829514
:101C4000807F892B80832B5F3F4FA217B307F9F06A
:101C5000529542954F7045275F704527842F8F70AE
:101C6000F901E9CF9081907F90839081892B8083C7
:101C70002B5F3F4FA217B30751F0529542954F701B
:101C800045275F704527842F8F70F901EBCF0895AA
:101C9000ECEEF0E0C9CF62307105D4F3EDEEF0E088
:101CA000C3CFE1E6F0E080E88083108287EB809389
:101CB000E50087E08093E6008FE08093E70080EC0A
:101CC0008093E4000895811539F08091EE00897FBA
:101CD00082608093EE0008958091EE00897F846099
:101CE0008093EE000895CF93DF9300D000D000D012
:101CF000CDB7DEB769837A838B839C834D835E8304
:101D00004630510588F424E630E040E050E08ED0C3
:101D10002AE030E040E050E089D02A30310520F45C
:101D20006D817E81C90170DF8D819E8101968D83D9
:101D30009E830697C0F469817A818B819C812AE019
:101D400030E040E050E072D0CB016A30710558F4C9
:101D50006D817E810F900F900F900F900F900F90DC
:101D6000DF91CF9151CF0F900F900F900F900F9068
:101D70000F90DF91CF910895CF92DF92EF92FF9273
:101D80000F931F938EDF03DE1EDD10923D01109234
:101D90003E0110922D0110922E0160E070E08EE164
:101DA00091E02ADD80E08FDFC12CD12C8AE0E82E83
:101DB0008BE0F82E07E311E09601A601B601C601FB
:101DC00028D907E211E09601A601B601C60121D982
:101DD000C6011F910F91FF90EF90DF90CF90089573
:101DE00041E06AE37CE088E091E0E1DB42E06EE123
:101DF0007CE088E091E0DBDB40E050E06CEB7EE0F3
:101E00008EE191E0EDCB97FB072E16F4009406D0FF
:101E100077FD08D03CD007FC05D03EF49095819525
:101E20009F4F0895709561957F4F0895052E97FBFC
:101E300016F400940FD057FD05D03DD007FC02D01A
:101E400046F408C050954095309521953F4F4F4F2F
:101E50005F4F089590958095709561957F4F8F4F56
:101E60009F4F089505D0B7FF0895821B930B0895E7
:101E7000A29FB001B39FC001A39F700D811D1124CB
:101E8000911DB29F700D811D1124911D0895AA1BF3
:101E9000BB1B51E107C0AA1FBB1FA617B70710F055
:101EA000A61BB70B881F991F5A95A9F78095909587
:101EB000BC01CD010895A1E21A2EAA1BBB1BFD0196
:101EC0000DC0AA1FBB1FEE1FFF1FA217B307E40719
:101ED000F50720F0A21BB30BE40BF50B661F771F71
:101EE000881F991F1A9469F7609570958095909551
:101EF0009B01AC01BD01CF010895DC012D923D9203
:101F00004D925D926D927D928D929D92AD92BD9219
:101F1000CD92DD92ED92FD920D931D93CD93DD93C5
:101F2000FF91EF918DB78D938EB78D938FB78D9372
:101F3000ED93FD93882799270994DC01CB0181302B
:101F40009105811D2D903D904D905D906D907D90FF
:101F50008D909D90AD90BD90CD90DD90ED90FD90D9
:101F60000D911D91CD91DD91ED91FD910D90F89424
:101F7000FEBF0FBEEDBFED91FD910994F894FFCF28
:101F8000AE01AE014B03BF03000000000E010000D4
:101F9000000037013701270100001E01000000008A
:101FA00000003701270101000000000000000000D0
:101FB000000600AF04000000000000000000000068
:101FC000000400AF04000051151001111E111B5038
:0C1FD0000B411B411F1101511F511B0050
:00000001FF
