S01200002E2F72756E2F6D61696E2E737265638C
S11300002DC000000BC200005BC20000ABC20000A8
S1130010FBC200004BC300003EC000000C94230848
S11300203AC00000BFC7000093C30000E3C3000050
S113003033C4000083C40000D3C4000023C50000FF
S113004073C50000C3C5000013C6000063C60000EA
S1130050B3C6000003C7000053C7000011241FBE2D
S1130060CFEFD4E0DEBFCDBF11E0A0E0B1E0E8E621
S1130070FEE102C005900D92A035B107D9F724E046
S1130080A0E5B1E001C01D92A73AB207E1F70E94D2
S1130090640E0C94320FB4CFCF92DF92EF92FF92A2
S11300A00F931F93CF93DF9300D000D000D0CDB730
S11300B0DEB78D839E83FC01C284D38404851585B9
S11300C086819781181619060CF06BC081E090E0C8
S11300D024813581232B09F05DC0ED81FE81848369
S11300E015827DE0E72E71E0F72E40E050E09A01A2
S11300F080E0B9010E94DD08ED81FE81668177818F
S113010084EF91E00E94770E2DE730E0DB010E943E
S1130110A60E97FD41C09B01AC01559547953795B7
S11301202795559547953795279529833A834B838A
S11301305C83ED81FE8186859785009731F00E946E
S1130140330BED81FE8116861786C12CD12C9CE4DD
S1130150E92E90E0F92E0D811E819601A601698198
S11301607A818B819C810E94DD08ED81FE818687E6
S1130170978780E090E00F900F900F900F900F9072
S11301800F90DF91CF911F910F91FF90EF90DF902F
S1130190CF90089580E0A1CF6D5F7F4F8F4F9F4F29
S11301A0BACFED81FE811482158286E1E82E81E0CA
S11301B0F82E40E050E09A01B901C901FED7D9CF29
S11301C0FC0186819781833691051CF40196868310
S11301D097830895FC0186819781181619061CF4EB
S11301E00197868397830895FC0186819781009700
S11301F039F08087918780E090E086839783089523
S113020080859185868397830895FC0186819781F3
S113021008958DB180658DB908958EB121E001C036
S1130220220F6A95EAF782278EB908952EB181E0EC
S113023001C0880F6A95EAF7809582238EB90895E4
S1130240CF93DF9300D000D0CDB7DEB783EC93E03B
S113025023EA34E0FC0170978083918340968217EF
S11302609307C1F710929304109294048CE593E0E1
S113027080933F039093400389E793E080935C036A
S113028090935D03E6E9F3E0E0937903F0937A0356
S1130290108211828BE192E08B839C83EFE3F3E085
S11302A0E983FA8389819A8106960E94F10E8B81F3
S11302B09C81E981FA81868B978B808F918F89EB62
S11302C09AE0838F948F14821582EB81FC81E05A2B
S11302D0FF4FEB83FC8389819A814D9689839A83AE
S11302E0835B9340F9F61092A2011092A30110923D
S11302F0A6011092A7011092A4011092A501E1E6B3
S1130300F0E080E8808310821092850010928400CF
S113031084E08093810081E080936F000F900F90C0
S11303200F900F90DF91CF910895CF93DF9300D07A
S1130330CDB7DEB789839A83809100019091010142
S113034006960E94F10E892B29F00F900F90DF91F1
S1130350CF91089589819A8180930001909301013E
S113036061E070E006960E94110FEF92FF920F93E6
S11303701F93CF93DF9300D000D000D0CDB7DEB76A
S1130380E091A001F091A101309709F1809104015D
S1130390909105010097D9F0209102013091030159
S11303A0D90112960D90BC91A02DAD83BE831097F8
S11303B0D9F0E680F7800085118516964D915D9100
S11303C06D917D91E416F506060717076CF00F9002
S11303D00F900F900F900F900F90DF91CF911F917E
S11303E00F91FF90EF900895DC014D915D91409342
S11303F00401509305013E932E9380930201909340
S113040003010F900F900F900F900F900F90DF91BA
S1130410CF911F910F91FF90EF9087CF1F920F9272
S11304200FB60F9211242F933F934F935F936F93C3
S11304307F938F939F93AF93BF93EF93FF932091F9
S11304409801309199018091840090918500D9019F
S113045080939A0190939B01A0939C01B0939D017A
S1130460B09B0FC080918400909185002F5F3F4F17
S1130470D90180939A0190939B0120939C01B0939E
S11304809D01E0917401F0917501309739F060E0BD
S113049070E08091500190915101099566DFFF91C0
S11304A0EF91BF91AF919F918F917F916F915F91E8
S11304B04F913F912F910F900FBE0F901F90189561
S11304C01F920F920FB60F9211242F933F934F93C5
S11304D05F936F937F938F939F93AF93BF93EF93A8
S11304E0FF9320919801309199018091840090911B
S11304F08500D90180939A0190939B01A0939C015C
S1130500B0939D01B09B0FC08091840090918500B1
S11305102F5F3F4FD90180939A0190939B012093C1
S11305209C01B0939D01E0917601F09177013097A1
S113053039F061E070E08091520190915301099586
S113054014DFFF91EF91BF91AF919F918F917F91B4
S11305506F915F914F913F912F910F900FBE0F902C
S11305601F9018951F920F920FB60F9211242F937C
S11305703F934F935F936F937F938F939F93AF9327
S1130580BF93EF93FF93209198013091990180914B
S1130590840090918500D90180939A0190939B01E6
S11305A0A0939C01B0939D01B09B0FC080918400E7
S11305B0909185002F5F3F4FD90180939A019093CA
S11305C09B0120939C01B0939D01E0917801F091EF
S11305D07901309739F062E070E080915401909194
S11305E055010995C2DEFF91EF91BF91AF919F91A3
S11305F08F917F916F915F914F913F912F910F90C8
S11306000FBE0F901F9018951F920F920FB60F9266
S113061011242F933F934F935F936F937F938F9303
S11306209F93AF93BF93EF93FF93209198013091E1
S113063099018091840090918500D90180939A0159
S113064090939B01A0939C01B0939D01B09B0FC01C
S113065080918400909185002F5F3F4FD901809352
S11306609A0190939B0120939C01B0939D01E0918A
S11306707A01F0917B01309739F063E070E080916A
S1130680560190915701099570DEFF91EF91BF914A
S1130690AF919F918F917F916F915F914F913F9116
S11306A02F910F900FBE0F901F9018951F920F92CD
S11306B00FB60F9211242F933F934F935F936F9331
S11306C07F938F939F93AF93BF93EF93FF93209167
S11306D09801309199018091840090918500D9010D
S11306E080939A0190939B01A0939C01B0939D01E8
S11306F0B09B0FC080918400909185002F5F3F4F85
S1130700D90180939A0190939B0120939C01B0930B
S11307109D01E0917C01F0917D01309739F064E016
S113072070E0809158019091590109951EDEFF9166
S1130730EF91BF91AF919F918F917F916F915F9155
S11307404F913F912F910F900FBE0F901F901895CE
S11307501F920F920FB60F9211242F933F934F9332
S11307605F936F937F938F939F93AF93BF93EF9315
S1130770FF93209198013091990180918400909188
S11307808500D90180939A0190939B01A0939C01C9
S1130790B0939D01B09B0FC080918400909185001F
S11307A02F5F3F4FD90180939A0190939B0120932F
S11307B09C01B0939D01E0917E01F0917F013097FF
S11307C039F065E070E080915A0190915B010995E0
S11307D0CCDDFF91EF91BF91AF919F918F917F916C
S11307E06F915F914F913F912F910F900FBE0F909A
S11307F01F9018951F920F920FB60F9211242F93EA
S11308003F934F935F936F937F938F939F93AF9394
S1130810BF93EF93FF9320919801309199018091B8
S1130820840090918500D90180939A0190939B0153
S1130830A0939C01B0939D01B09B0FC08091840054
S1130840909185002F5F3F4FD90180939A01909337
S11308509B0120939C01B0939D01E0918001F09154
S11308608101309739F066E070E080915C019091ED
S11308705D0109957ADDFF91EF91BF91AF919F9151
S11308808F917F916F915F914F913F912F910F9035
S11308900FBE0F901F9018951F920F920FB60F92D4
S11308A011242F933F934F935F936F937F938F9371
S11308B09F93AF93BF93EF93FF932091980130914F
S11308C099018091840090918500D90180939A01C7
S11308D090939B01A0939C01B0939D01B09B0FC08A
S11308E080918400909185002F5F3F4FD9018093C0
S11308F09A0190939B0120939C01B0939D01E091F8
S11309008201F0918301309739F067E070E08091C3
S11309105E0190915F01099528DDFF91EF91BF91F0
S1130920AF919F918F917F916F915F914F913F9183
S11309302F910F900FBE0F901F9018951F920F923A
S11309400FB60F9211242F933F934F935F936F939E
S11309507F938F939F93AF93BF93EF93FF932091D4
S11309609801309199018091840090918500D9017A
S113097080939A0190939B01A0939C01B0939D0155
S1130980B09B0FC080918400909185002F5F3F4FF2
S1130990D90180939A0190939B0120939C01B09379
S11309A09D01E0918401F0918501309739F068E070
S11309B070E080916001909161010995D6DCFF910E
S11309C0EF91BF91AF919F918F917F916F915F91C3
S11309D04F913F912F910F900FBE0F901F9018953C
S11309E01F920F920FB60F9211242F933F934F93A0
S11309F05F936F937F938F939F93AF93BF93EF9383
S1130A00FF932091980130919901809184009091F5
S1130A108500D90180939A0190939B01A0939C0136
S1130A20B0939D01B09B0FC080918400909185008C
S1130A302F5F3F4FD90180939A0190939B0120939C
S1130A409C01B0939D01E0918601F091870130975C
S1130A5039F069E070E08091620190916301099539
S1130A6084DCFF91EF91BF91AF919F918F917F9122
S1130A706F915F914F913F912F910F900FBE0F9007
S1130A801F9018951F920F920FB60F9211242F9357
S1130A903F934F935F936F937F938F939F93AF9302
S1130AA0BF93EF93FF932091980130919901809126
S1130AB0840090918500D90180939A0190939B01C1
S1130AC0A0939C01B0939D01B09B0FC080918400C2
S1130AD0909185002F5F3F4FD90180939A019093A5
S1130AE09B0120939C01B0939D01E0918801F091BA
S1130AF08901309739F06AE070E080916401909147
S1130B006501099532DCFF91EF91BF91AF919F91FF
S1130B108F917F916F915F914F913F912F910F90A2
S1130B200FBE0F901F9018951F920F920FB60F9241
S1130B3011242F933F934F935F936F937F938F93DE
S1130B409F93AF93BF93EF93FF93209198013091BC
S1130B5099018091840090918500D90180939A0134
S1130B6090939B01A0939C01B0939D01B09B0FC0F7
S1130B7080918400909185002F5F3F4FD90180932D
S1130B809A0190939B0120939C01B0939D01E09165
S1130B908A01F0918B01309739F06BE070E080911D
S1130BA06601909167010995E0DBFF91EF91BF9198
S1130BB0AF919F918F917F916F915F914F913F91F1
S1130BC02F910F900FBE0F901F9018951F920F92A8
S1130BD00FB60F9211242F933F934F935F936F930C
S1130BE07F938F939F93AF93BF93EF93FF93209142
S1130BF09801309199018091840090918500D901E8
S1130C0080939A0190939B01A0939C01B0939D01C2
S1130C10B09B0FC080918400909185002F5F3F4F5F
S1130C20D90180939A0190939B0120939C01B093E6
S1130C309D01E0918C01F0918D01309739F06CE0C9
S1130C4070E0809168019091690109958EDBFF91B4
S1130C50EF91BF91AF919F918F917F916F915F9130
S1130C604F913F912F910F900FBE0F901F901895A9
S1130C701F920F920FB60F9211242F933F934F930D
S1130C805F936F937F938F939F93AF93BF93EF93F0
S1130C90FF93209198013091990180918400909163
S1130CA08500D90180939A0190939B01A0939C01A4
S1130CB0B0939D01B09B0FC08091840090918500FA
S1130CC02F5F3F4FD90180939A0190939B0120930A
S1130CD09C01B0939D01E0918E01F0918F013097BA
S1130CE039F06DE070E080916A0190916B01099593
S1130CF03CDBFF91EF91BF91AF919F918F917F91D9
S1130D006F915F914F913F912F910F900FBE0F9074
S1130D101F9018951F920F920FB60F9211242F93C4
S1130D203F934F935F936F937F938F939F93AF936F
S1130D30BF93EF93FF932091980130919901809193
S1130D40840090918500D90180939A0190939B012E
S1130D50A0939C01B0939D01B09B0FC0809184002F
S1130D60909185002F5F3F4FD90180939A01909312
S1130D709B0120939C01B0939D01E0919001F0911F
S1130D809101309739F06EE070E080916C019091A0
S1130D906D010995EADAFF91EF91BF91AF919F91AF
S1130DA08F917F916F915F914F913F912F910F9010
S1130DB00FBE0F901F9018951F920F920FB60F92AF
S1130DC011242F933F934F935F936F937F938F934C
S1130DD09F93AF93BF93EF93FF932091980130912A
S1130DE099018091840090918500D90180939A01A2
S1130DF090939B01A0939C01B0939D01B09B0FC065
S1130E0080918400909185002F5F3F4FD90180939A
S1130E109A0190939B0120939C01B0939D01E091D2
S1130E209201F0919301309739F06FE070E0809176
S1130E306E0190916F01099598DAFF91EF91BF913E
S1130E40AF919F918F917F916F915F914F913F915E
S1130E502F910F900FBE0F901F9018951F920F9215
S1130E600FB60F9211242F933F934F935F936F9379
S1130E707F938F939F93AF93BF93EF93FF932091AF
S1130E809801309199018091840090918500D90155
S1130E9080939A0190939B01A0939C01B0939D0130
S1130EA0B09B0FC080918400909185002F5F3F4FCD
S1130EB0D90180939A0190939B0120939C01B09354
S1130EC09D01E0919401F0919501309739F060E132
S1130ED070E08091700190917101099546DAFF915B
S1130EE0EF91BF91AF919F918F917F916F915F919E
S1130EF04F913F912F910F900FBE0F901F90189517
S1130F001F920F920FB60F9211242F933F934F937A
S1130F105F936F937F938F939F93AF93BF93EF935D
S1130F20FF932091980130919901809184009091D0
S1130F308500D90180939A0190939B01A0939C0111
S1130F40B0939D01B09B0FC0809184009091850067
S1130F502F5F3F4FD90180939A0190939B01209377
S1130F609C01B0939D01E0919601F0919701309717
S1130F7039F061E170E080917201909173010995FB
S1130F80F4D9FF91EF91BF91AF919F918F917F9190
S1130F906F915F914F913F912F910F900FBE0F90E2
S1130FA01F9018951F921FB61F9211242F933F93E1
S1130FB04F935F936F937F938F939F93EF93FF93DD
S1130FC08091980190919901019680939801909352
S1130FD09901E0919E01F0919F01309739F042818F
S1130FE05381648175818617970799F080916F000A
S1130FF08D7F80936F00FF91EF919F918F917F91EF
S11310006F915F914F913F912F911F901FBE1F9041
S11310101895CA012091840030918500421B530B1E
S11310204130510551F0909389008093880080915C
S11310306F00826080936F00DECF80918400909176
S113104085000196F0CF1F920F920FB60F921124D4
S1131050CF92DF92EF92FF922F933F934F935F9340
S11310606F937F938F939F93AF93BF93CF93DF93AC
S1131070EF93FF938091980190919901C09084001F
S1131080D09085007C01B09B06C0C0908400D090B5
S1131090850001967C0120919E0130919F012115CC
S11310A0310509F442C0F90182819381A481B5819B
S11310B0C816D906EA06FB060CF45AC0D9018D916C
S11310C09D91129780939E0190939F01E091A001BE
S11310D0F091A101309709F465C016964D915D9188
S11310E06D917D91C0E0D0E006C080819181EF01D7
S11310F00097C1F1FC0186819781A085B1854817CD
S113110059076A077B078CF7D901ED93FD93209764
S113111061F52093A0013093A10120919E013091AB
S11311209F012115310509F0BECF80916F008D7F9D
S113113080936F001AD9FF91EF91DF91CF91BF9106
S1131140AF919F918F917F916F915F914F913F915B
S11311502F91FF90EF90DF90CF900F900FBE0F90E4
S11311601F901895D9011D921D922883398393CF1E
S113117020919801309199012A173B07B1F69C01FF
S11311804091840050918500841B950B019771F068
S1131190309389002093880080916F00826080934F
S11311A06F00C8CFD9011D921D92B3CF2091840046
S11311B0309185002F5F3F4FEBCF4F925F926F923C
S11311C07F92BF92CF92DF92EF92FF920F931F9381
S11311D0CF93DF9329013A014FB7F894C0910601E8
S11311E0D0910701209709F4C7C047FBBB24B7F887
S11311F02881398120930601309307010A871B87D0
S1131200EC86FD86CE86DF8647FD7BC000919A0181
S113121010919B0120919C0130919D01AB01BC0177
S1131220400F511F621F731F4A835B836C837D834E
S113123014141504160417042CF08FEF582E452CA3
S113124032017694CA01DB01840D951DA61DB71DDC
S11312508E839F83A887B987209198013091990143
S1131260C0908400D0908500B09B06C0C0908400DC
S1131270D09085002F5F3F4F7901C416D506E6064E
S1131280F7060CF084C0E0919E01F0919F0120E0EC
S113129030E0309739F4D9C0808191819F01009763
S11312A0E1F1FC0182819381A481B581481759073A
S11312B06A077B078CF7E883F9832115310579F5F3
S11312C0C0939E01D0939F018091980190919901C0
S11312D086179707C1F180916F008D7F80936F000F
S11312E0B1109BC0CE01DF91CF911F910F91FF9060
S11312F0EF90DF90CF90BF907F906F905F904F9072
S11313000895E0910001F09101010280F381E02D44
S1131310028113812481358181CF18821982D901F8
S1131320CD93DD93E0919E01F0919F01309799F266
S113133042815381648175818091980190919901D2
S11313408617970741F6CA012091840030918500E1
S1131350421B530B4130510529F480918400909134
S113136085000196909389008093880080916F0096
S1131370826080936F00B4CF8FEF8093EC008093F2
S1131380ED008093EE0081E083BF8895FDCFE0916E
S1131390A001F091A10100E010E0309741F458C0A1
S11313A0208131818F0121153105C9F1F90146816F
S11313B057816085718584179507A607B70784F759
S11313C0E883F9830115110561F5C093A001D09359
S11313D0A101B11409F486CF809104019091050113
S11313E00097D9F0E0910201F09103012091A0014E
S11313F03091A10142815381D90116960D911D911D
S11314002D913D91DA0116964D915D916D917D91ED
S1131410041715072607370744F0789463CF18821A
S11314201982F801C083D183D4CFDC012D913D9181
S11314302093040130930501FE93EE9380930201FF
S1131440909303010E949501E8CF1882198238CF46
S113145018821982BACFEF92FF921F93CF93DF9332
S113146000D000D000D0CDB7DEB77C0169837A8389
S11314704B835C831FB71078F894FC01A081B18181
S11314808091000190910101109719F458C0A08136
S1131490B1811496ED91FD9116973097C1F78A1793
S11314A09B0709F45EC0111509F45EC0F70122819F
S11314B033812115310519F0F90114821582F701E0
S11314C082839383FC01E482F582CD010E9495011D
S11314D0E0910001F091010182819381892B09F44B
S11314E03CC0D701ED93FD93D70112968D919D9148
S11314F0019709F078946B817C81C701E981FA81B5
S1131500099589839B838FB7F894D7011D921D9207
S11315108D919D91149782309105B0F4111509F0C5
S1131520789489819B810F900F900F900F900F906A
S11315300F90DF91CF911F91FF90EF9008958083DA
S113154091831115C1F2D0CF12961D921D92FC0108
S1131550148215820E949501E1CF789419821B822E
S1131560E0CF111509F07894FFEFF9832FEF2B8367
S1131570D8CFC091A001D091A101209709F468C0EF
S1131580E0910001F0910101888199818093A0018B
S11315909093A101C283D38378944E855F856C8533
S11315A07D858A859B8557DF8FB7F89480910601E6
S11315B09091070188839983C0930601D093070112
S11315C0E0910201F091030180819181C091A00119
S11315D0D091A1012097B9F0DC0112962D913D9193
S11315E02115310569F24E815F8168857985D901BC
S11315F016960D911D912D913D91041715072607FF
S113160037070CF0BDCF80930201909303018091C2
S113161004019091050180839183E0930401F09388
S11316200501A0910201B091030102C0A081B18122
S11316301496ED91FD9116973097C1F7CD010E9454
S11316409501C091A001D091A101209709F098CFF4
S11316508FEF8093EC008093ED008093EE0081E0A7
S113166083BF8895FDCFDC014FB7F894E0919E01CC
S1131670F0919F0180E090E0309741F420C02081F8
S11316803181CF0121153105D1F0F901AE17BF0722
S1131690B1F72D913D911297009779F1FC012083C8
S11316A0318380910601909107018D939D93129748
S11316B0A0930601B093070147FD1DC00895E09172
S11316C0A001F091A10120E030E0309739F41AC074
S11316D0808191819F010097A9F0FC01AE17BF079B
S11316E0B9F78D919D9112972115310579F1F90181
S11316F080839183D6CF7894089520939E0130936C
S11317009F01CFCFE0910201F091030120910001EC
S113171030910101309731F4CFCF0190F081E02D69
S1131720309751F22E173F07C1F3828193818A17B4
S11317309B0799F7648175811A968D919D911C97E9
S11317406817790751F712821382ABCF8093A001F7
S11317509093A101A6CF4231A0F42FB7F89450E0A2
S1131760440F551FFA01E05BFE4F808391834C5870
S11317705E4FFA016083718341E0FC01428313826E
S113178027FF0895789408958C017B016A018FB72F
S1131790F8940E9420017894E114F10431F040E0BF
S11317A050E09A01B901C90108DD8FB7F8940E948D
S11317B0B501789481E083BF8895FDCF880F991F88
S11317C0FC01E55CFE4F4081518164307105ECF110
S11317D0CB010497EEEEF0E00297A0F59F01DF0144
S11317E05496842F8F7060FF17C090819F709083F0
S11317F090818295807F892B80832B5F3F4FA21736
S1131800B307F9F0529542954F7045275F7045270D
S1131810842F8F70F901E9CF9081907F908390811C
S1131820892B80832B5F3F4FA217B30751F052954A
S113183042954F7045275F704527842F8F70F901BB
S1131840EBCF0895ECEEF0E0C9CF62307105D4F32C
S1131850EDEEF0E0C3CFE1E6F0E080E880831082B3
S113186087EB8093E50087E08093E6008FE0809328
S1131870E70080EC8093E4000895811539F08091AD
S1131880EE00897F82608093EE0008958091EE00DF
S1131890897F84608093EE000895CF93DF9300D016
S11318A000D000D0CDB7DEB769837A838B839C8365
S11318B04D835E834630510588F424E630E040E0F1
S11318C050E028D22AE030E040E050E023D22A3031
S11318D0310520F46D817E81C90170DF8D819E8187
S11318E001968D839E830697C0F469817A818B81EA
S11318F09C812AE030E040E050E00CD2CB016A3019
S1131900710558F46D817E810F900F900F900F90A8
S11319100F900F90DF91CF9151CF0F900F900F90B8
S11319200F900F900F90DF91CF910895CF92DF9297
S1131930EF92FF920F931F938C016B0183B190E0A0
S1131940062E02C0959587950A94E2F780FD18C08B
S113195067307105F1F06630710521F140E050E027
S11319606FE07EE086E191E076DD86E9E82E8CE0AA
S1131970F82E40E050E09A01C9016AE678E11DDCE6
S113198080E090E01F910F91FF90EF90DF90CF9057
S1131990089541E050E06AEE70E0F8018481958199
S11319A05ADDDCCF41E050E060EE70E0F801848164
S11319B0958151DDD3CF85B1806D85B98EB18C60B1
S11319C08EB98DB3806C8DBBECE6F0E08081806DC8
S11319D08083EBE680818C6080830895CF92DF92D0
S11319E0EF92FF920F931F93CF93DF93EC011F9914
S11319F024C00C811D8161E0C62ED12C7AEEE72E25
S1131A0070E0F72E40E050E09A01B901C901D5DB3E
S1131A1040E050E06FE07EE086E191E01CDDE7E02D
S1131A20CE2EF6E9EF2EFCE0FF2E8E0140E050E0D2
S1131A309A01C90169E07DE3C0DB1E9B0DC01C9BBC
S1131A4031C080E090E0DF91CF911F910F91FF9022
S1131A50EF90DF90CF9008950C811D8121E0C22E7C
S1131A60D12C30EEE32E30E0F32E40E050E09A012A
S1131A70B901C901A2DB40E050E06FE07EE086E1FD
S1131A8091E0E9DC46E0C42E56E9E52E5CE0F52E53
S1131A908E0140E050E09A01C90169E07DE38DDBED
S1131AA01C99CFCF0C811D81C12CD12C84EFE82E41
S1131AB080E0F82E9601A601B601C6017EDB9FE008
S1131AC0E92E9EE0F92E06E111E09601A601B60189
S1131AD0C60173DBB6CFCF92DF92EF92FF920F93E2
S1131AE01F93CF93DF9300D0CDB7DEB789839A835A
S1131AF0629B0FC0639B48C080E090E00F900F9002
S1131B00DF91CF911F910F91FF90EF90DF90CF90D5
S1131B10089540E050E06BE07EE086E191E09BDCDC
S1131B20019751F340E050E06BE07EE086E191E004
S1131B3092DCE981FA81892B09F460C08085918562
S1131B40E981FA8184839583C12CD12C94E0E92E18
S1131B509EE0F92E06E111E09601A601B601C60148
S1131B602CDBA6016BE07EE0C80175DC9C0181E002
S1131B70232B09F480E081DEA6016FE07EE086E19C
S1131B8091E069DC6399B8CF40E050E06BE07EE01F
S1131B9086E191E060DC892B09F4AECF40E050E0AF
S1131BA06BE07EE086E191E056DCE981FA81892BE5
S1131BB041F586819781E981FA8184839583C12CDB
S1131BC0D12C84E0E82E8EE0F82E06E111E0960197
S1131BD0A601B601C601F1DAA6016BE07EE0C801F8
S1131BE03ADC9C0181E0232B09F480E046DEA60167
S1131BF06FE07EE086E191E02EDC7ECF86819781E6
S1131C009FCF80859185D7CFFC01908581E098276F
S1131C10908790E00895FC01808590E00895FC0190
S1131C20208540E050E065E071E0211569F0848191
S1131C30958111DCBC01990F990B892F40E050E08C
S1131C402CDE80E090E008958681978104DCBC015D
S1131C50990F990B892F44E050E01FDE80E090E05B
S1131C600895CF92DF92EF92FF920F931F93F3DDCB
S1131C70A2DE0E94090110923301109234011092E5
S1131C8025011092260186E191E0C9DF80E0F5DDAF
S1131C90C12CD12C8CE4E82E80E0F82E0DE211E06A
S1131CA09601A601B601C60188DA0FE111E096019A
S1131CB0A601B601C60181DAC6011F910F91FF90FA
S1131CC0EF90DF90CF90089541E06BE67DE088E0EF
S1131CD091E041DD42E06EEE7CE088E091E03BDDA6
S1131CE040E050E061E37EE086E191E04DCD97FB7A
S1131CF0072E16F4009406D077FD08D03CD007FCDC
S1131D0005D03EF4909581959F4F08957095619507
S1131D107F4F0895052E97FB16F400940FD057FDBE
S1131D2005D03DD007FC02D046F408C0509540953C
S1131D30309521953F4F4F4F5F4F08959095809573
S1131D40709561957F4F8F4F9F4F089505D0B7FFD2
S1131D500895821B930B0895A29FB001B39FC00105
S1131D60A39F700D811D1124911DB29F700D811DC3
S1131D701124911D0895AA1BBB1B51E107C0AA1F82
S1131D80BB1FA617B70710F0A61BB70B881F991F18
S1131D905A95A9F780959095BC01CD010895A1E2CB
S1131DA01A2EAA1BBB1BFD010DC0AA1FBB1FEE1FD1
S1131DB0FF1FA217B307E407F50720F0A21BB30B1C
S1131DC0E40BF50B661F771F881F991F1A9469F798
S1131DD060957095809590959B01AC01BD01CF01F4
S1131DE00895DC012D923D924D925D926D927D920B
S1131DF08D929D92AD92BD92CD92DD92ED92FD9227
S1131E000D931D93CD93DD93FF91EF918DB78D933A
S1131E108EB78D938FB78D93ED93FD938827992774
S1131E200994DC01CB0181309105811D2D903D90F9
S1131E304D905D906D907D908D909D90AD90BD90F6
S1131E40CD90DD90ED90FD900D911D91CD91DD91A2
S1131E50ED91FD910D90F894FEBF0FBEEDBFED9195
S10B1E60FD910994F894FFCFF1
S1131E68A201A2013F03B303000000002D012D01CC
S1131E781F0100001601000000002D011F010100D0
S1131E880000000000000000000600A30400000099
S1131E98000000000000000400A304511510011103
S1131EA81E111B500B411B411F1101511F511B00D7
S9030000FC
