:100000002DC0000046C0000044C000008EC10000AA
:1000100040C000003EC000003CC000005EC10000C7
:1000200038C0000036C0000034C0000032C00000FC
:1000300030C000002EC000002CC000002AC000000C
:1000400028C0000026C0000024C0000022C000001C
:1000500020C000001EC000001CC0000011241FBEF4
:10006000CFEFD4E0DEBFCDBF11E0A0E0B1E0EAE425
:10007000F7E002C005900D92A831B107D9F723E04F
:10008000A8E1B1E001C01D92A734B207E1F777D132
:100090005AC3B6CF892B21F481E08093FE000895E6
:1000A0001092FE000895880F991FFC01EC55FF4F38
:1000B0004081518164307105ECF1CB010497EEEE83
:1000C000F0E00297A0F59F01DF015496842F8F7016
:1000D00060FF17C090819F70908390818295807F90
:1000E000892B80832B5F3F4FA217B307F9F05295FE
:1000F00042954F7045275F704527842F8F70F90117
:10010000E9CF9081907F90839081892B80832B5FB2
:100110003F4FA217B30751F0529542954F704527B4
:100120005F704527842F8F70F901EBCF0895ECEEB7
:10013000F0E0C9CF62307105D4F3EDEEF0E0C3CF4B
:100140000F931F93CF93DF9300D000D000D0CDB793
:10015000DEB76B837C838D839E838A0188E191E087
:10016000F3D100931C0110931D0106301105C8F452
:100170006B817C818D819E8124E630E040E050E0FF
:1001800063D22AE030E040E050E05ED22A30310510
:1001900040F4C901C096B80186DF00911C0110919E
:1001A0001D011A82198289819A81883E93405CF4EC
:1001B00029813A812F5F3F4F3A83298329813A81F0
:1001C000283E3340ACF30F5F1F4F00931C01109388
:1001D0001D010630110580F46B817C818D819E812B
:1001E0002AE030E040E050E02FD26A30710520F480
:1001F000CB01C096B80157DF88E191E00F900F90D6
:100200000F900F900F900F90DF91CF911F910F9152
:10021000C6C1CF93DF9300D0CDB7DEB789839A8371
:1002200080E885B9E7D1E1D1BC0180E090E044E00D
:1002300050E086DF89819A81892B59F48091EE0004
:10024000897F82608093EE000F900F90DF91CF91B5
:1002500008958091EE00897F84608093EE000F9076
:100260000F90DF91CF910895EC01A12CB12C4501A5
:10027000839483E088169104A104B10424F182E000
:10028000C82ED12CE12CF12C0AC08FEFC81AD80A45
:10029000E80AF80A8C149D04AE04BF04A1F0B4016E
:1002A000C5019601A701D0D1672B682B692B69F78F
:1002B0008FEF881A980AA80AB80A83E08816910472
:1002C000A104B104E4F6AE01B401C50139DF8FEF3A
:1002D000881A980AA80AB80AF0CF1F920F920FB690
:1002E0000F9211242F933F934F935F936F937F93BC
:1002F0008F939F93AF93BF93EF93FF9387D1682F13
:1003000070E08AE490E079D0FF91EF91BF91AF91D6
:100310009F918F917F916F915F914F913F912F911D
:100320000F900FBE0F901F9018951F920F920FB64F
:100330000F9211242F933F934F935F936F937F936B
:100340008F939F93AF93BF93EF93FF931F9906C033
:100350006CD1682F70E089E091E04FD0FF91EF9170
:10036000BF91AF919F918F917F916F915F914F91CD
:100370003F912F910F900FBE0F901F9018952BD08B
:1003800060E070E08AE490E038D060E070E089E0FE
:1003900091E033D080E090E067DFCF93DF9300D02F
:1003A000CDB7DEB789839A838091000190910101D6
:1003B000069688D1892B29F00F900F90DF91CF916D
:1003C000089589819A81809300019093010161E0F1
:1003D00070E0069697D1E1E6F0E080E88083108235
:1003E00087EB8093E50087E08093E6008FE08093C1
:1003F000E70080EC8093E4000895CF93DF9300D072
:10040000CDB7DEB7F8942091220130912301232B40
:1004100009F466C0209102013091030129833A83D7
:100420002115310599F1F9012481358120930201CB
:1004300030930301808391836283738314821582D6
:10044000CF0106963FD1019711F189819A81875991
:100450009F4FE981FA81868B978B808F918FE091F6
:100460000001F09101019091240180912501948374
:100470008583E0932401F093250189819A818DDFA2
:1004800078940F900F90DF91CF910895FFCF7894DB
:10049000A0910001B0910101ED91FD918D919D918F
:1004A0000995F894E0910001F09101019091020109
:1004B0008091030194838583E0930201F09303010B
:1004C0008091240190912501009749F0FC0124813D
:1004D000358120932401309325015FDFB6CFFFCF14
:1004E00020E032E020939701309398012DE632E02E
:1004F00020930402309305022AED32E0209371022A
:10050000309372021092DE021092DF0220E825B9C9
:100510002DBB20936C00109285001092840022E085
:1005200020936F0020EC209380002DE02093810029
:1005300026E43FE0309389002093880021E0209357
:1005400022011092230166CFFC01F89480819181F1
:10055000892B29F481E08083118278940895A091F9
:100560000001B091010114961D921D929281838128
:1005700012979D938C931597A283B3838091240146
:1005800090912501009751F0FC0124813581209341
:1005900024013093250101DF78940895FFCFF8946A
:1005A000DC011296ED91FD9114973097C9F02481EA
:1005B000358112962D933D93A0910001B0910101D8
:1005C000909124018091250114969D938C93159709
:1005D000A0932401B0932501CF01DFDE7894089524
:1005E000FC011082118278940895809120019091ED
:1005F0002101089580912001909121019C012F5F9C
:100600003F4F3093210120932001089580911F01D5
:10061000811529F010921F0180911F01089581E03A
:1006200080931F0180911F01089580911E01811503
:1006300029F010921E0180911E01089581E080939F
:100640001E0180911E010895052E97FB16F400945B
:100650000FD057FD05D014D007FC02D046F408C0D7
:1006600050954095309521953F4F4F4F5F4F0895DE
:1006700090958095709561957F4F8F4F9F4F08950E
:10068000A1E21A2EAA1BBB1BFD010DC0AA1FBB1F96
:10069000EE1FFF1FA217B307E407F50720F0A21B08
:1006A000B30BE40BF50B661F771F881F991F1A9475
:1006B00069F760957095809590959B01AC01BD019F
:1006C000CF010895DC012D923D924D925D926D9285
:1006D0007D928D929D92AD92BD92CD92DD92ED92E2
:1006E000FD920D931D93CD93DD93FF91EF918DB707
:1006F0008D938EB78D938FB78D93ED93FD93882750
:1007000099270994DC01CB0181309105811D2D9041
:100710003D904D905D906D907D908D909D90AD90B1
:10072000BD90CD90DD90ED90FD900D911D91CD91FE
:10073000DD91ED91FD910D90F894FEBF0FBEEDBFE0
:0A074000ED91FD910994F894FFCFAC
:10074A002601930151151001111E111B500B411B5B
:08075A00411F1101511F511B49
:00000001FF
