S01400002E2F64656275672F6D61696E2E73726563D8
S11300002DC0000046C0000044C0000042C00000F3
S113001040C000003EC000003CC000003AC00000E8
S113002038C0000036C0000034C0000032C00000F8
S113003030C000002EC000002CC000002AC0000008
S113004028C0000026C0000024C0000022C0000018
S113005020C000001EC000001CC0000011241FBEF0
S1130060CFEFD4E0DEBFCDBF11E0A0E0B1E0ECE122
S1130070F8E002C005900D92A831B107D9F723E04A
S1130080A8E1B1E001C01D92AD33B207E1F7E9D1B7
S1130090C3C3B6CFCF93DF93CDB7DEB72B970FB6DD
S11300A0F894DEBF0FBECDBF998788877B876A87A8
S11300B08A859B8500970CF4A5C08A859B8586302C
S11300C091050CF09FC08885998500970CF49CC01D
S11300D0888599858A3091050CF096C08885998524
S11300E0880F991F8C5F9E4FFC01808191819A83B8
S11300F089838A859B858530910509F447C08A8563
S11301009B85863091050CF046C08A859B8584309A
S11301109105B9F18A859B8585309105E4F58A8539
S11301209B858330910541F18A859B8584309105B7
S113013094F58A859B8582309105C9F08A859B85D3
S11301408330910544F58A859B85009731F08A8533
S11301509B858130910531F01EC08CEE90E09C832C
S11301608B8319C08CEE90E09C838B8314C08DEE3E
S113017090E09C838B830FC08DEE90E09C838B83F7
S11301800AC08EEE90E09C838B8305C08EEE90E0D7
S11301909C838B8300001E821D822EC089818F70F8
S11301A08F838A859B8581709078009724F40197CA
S11301B08E6F9F6F0196582F2D813E81C901880F44
S11301C0991F880F991F820F931F9C018B819C811B
S11301D0820F931F4F81652F21D089819A81929537
S11301E082958F7089279F7089279A8389838D814F
S11301F09E8101969E838D838D819E81843091059D
S11302006CF203C0000001C000002B960FB6F894F6
S1130210DEBF0FBECDBFDF91CF910895CF93DF93A3
S113022000D000D0CDB7DEB79A8389836B834C832B
S11302308B818115C9F089819A81FC018081282FE5
S11302402F7089819A81FC01208389819A81FC0124
S11302508081982F8C818295807F892B282F89819A
S11302609A81FC01208315C089819A81FC018081D7
S1130270282F207F89819A81FC01208389819A819A
S1130280FC0190818C81292F282B89819A81FC0182
S1130290208300000F900F900F900F90DF91CF916B
S11302A008950F931F93CF93DF93CDB7DEB72897AD
S11302B00FB6F894DEBF0FBECDBF6D837E838F83F0
S11302C0988782E090E0A0E0B0E089839A83AB83D2
S11302D0BC8320C08D819E81AF81B88509811A813C
S11302E02B813C81BC01CD01A901980116D2DC010E
S11302F0CB010097A105B10511F480E019C08981F3
S11303009A81AB81BC810196A11DB11D89839A8319
S1130310AB83BC8349815A816B817C818D819E81B1
S1130320AF81B885481759076A077B079CF281E0BB
S113033028960FB6F894DEBF0FBECDBFDF91CF91E4
S11303401F910F9108950F931F93CF93DF93CDB710
S1130350DEB728970FB6F894DEBF0FBECDBF6B8310
S11303607C838D839E8358874F838F8198859A835E
S113037089838B819C81AD81BE8104E610E020E0FD
S113038030E0BC01CD01A9019801C7D1DC01CB014A
S11303900AE010E020E030E0BC01CD01A9019801A1
S11303A0BCD1DA01C901C0969C0189819A81BC0142
S11303B0C90170DE89819A8101969A8389838B8130
S11303C09C81AD81BE810AE010E020E030E0BC01F8
S11303D0CD01A9019801A1D1DC01CB01C0969C01FA
S11303E089819A81BC01C90155DE000028960FB6A7
S11303F0F894DEBF0FBECDBFDF91CF911F910F9157
S11304000895CF93DF9300D000D000D0CDB7DEB7EE
S11304109E838D8381E090E0A0E0B0E089839A839D
S1130420AB83BC8389819A81AB81BC81BC01CD0142
S113043038DF811551F02D813E8189819A81AB810C
S1130440BC81A901BC01CD017EDF89819A81AB8188
S1130450BC810196A11DB11D89839A83AB83BC83A2
S1130460E1CFCF93DF93CDB7DEB760E070E081E0FA
S113047092E0DAD083E090E0C4DF80E090E0DF91A6
S1130480CF910895CF93DF9300D0CDB7DEB71A8212
S1130490198220C089819A819C012F5F3F4F4DE6CC
S11304A0429FC001439F900D11249C01285E3E4F42
S11304B049815A816DE6649FC001659F900D1124A6
S11304C0845E9E4FFC013183208389819A81019649
S11304D09A83898389819A8183309105DCF2109211
S11304E064021092630281E090E090933C03809355
S11304F03B0300000F900F90DF91CF910895CF93AD
S1130500DF9300D000D000D0CDB7DEB79C838B83BF
S11305107E836D838B819C81FC01158214828D8185
S11305209E81FC0180819181009741F48D819E819F
S11305302B813C81FC01318320831DC08D819E81F0
S1130540FC01808191819A83898307C089819A8182
S1130550FC01848195819A83898389819A81FC0134
S113056084819581009791F789819A812B813C81BF
S1130570FC013583248300000F900F900F900F909F
S11305800F900F90DF91CF910895CF93DF9300D018
S113059000D0CDB7DEB79C838B838B819C81FC011B
S11305A0808191819A8389838B819C81FC018081E4
S11305B09181009771F08B819C81FC0180819181F4
S11305C0FC01248135818B819C81FC013183208352
S11305D001C0FFCF89819A810F900F900F900F90E7
S11305E0DF91CF910895CF93DF9300D0CDB7DEB7DD
S11305F09A83898380910201909103010696CBD05E
S1130600009761F489819A81909303018093020198
S113061089819A81069661E070E0DDD000000F9038
S11306200F90DF91CF910895CF93DF9300D000D046
S113063000D0CDB7DEB79C838B837E836D83F89423
S113064080913B0390913C03009709F41BDF80E009
S113065091E09BDF9A83898389819A812B813C81F4
S1130660FC013183208389819A812D813E81FC01A3
S11306703383228389819A81FC01158214828981C2
S11306809A81069688D081309105E9F47894809116
S1130690020190910301FC012081318180910201CA
S11306A090910301FC0182819381F9010995F894E9
S11306B0809102019091030160E071E020DF89E301
S11306C093E063DF90DF89819A814D969C01898153
S11306D09A8106964096245B3F4FFC013183208328
S11306E089819A814D969C0189819A8106964296C8
S11306F0245B3F4FFC013183208389819A8169E324
S113070073E0FDDE789400000F900F900F900F902F
S11307100F900F90DF91CF910895052E97FB16F45B
S113072000940FD057FD05D014D007FC02D046F436
S113073008C050954095309521953F4F4F4F5F4FDE
S1130740089590958095709561957F4F8F4F9F4F39
S11307500895A1E21A2EAA1BBB1BFD010DC0AA1FFE
S1130760BB1FEE1FFF1FA217B307E407F50720F016
S1130770A21BB30BE40BF50B661F771F881F991F91
S11307801A9469F760957095809590959B01AC01DA
S1130790BD01CF010895DC012D923D924D925D92F1
S11307A06D927D928D929D92AD92BD92CD92DD928D
S11307B0ED92FD920D931D93CD93DD93FF91EF91F7
S11307C08DB78D938EB78D938FB78D93ED93FD93E6
S11307D0882799270994DC01CB0181309105811D7B
S11307E02D903D904D905D906D907D908D909D905D
S11307F0AD90BD90CD90DD90ED90FD900D911D914B
S1130800CD91DD91ED91FD910D90F894FEBF0FBE59
S10F0810EDBFED91FD910994F894FFCF29
S113081C1801CC0251151001111E111B500B411B58
S10B082C411F1101510F511B82
S9030000FC
