S01200002E2F72756E2F6D61696E2E737265638C
S11300002DC000003EC000003CC000003AC000000B
S113001038C0000036C0000034C0000032C0000008
S113002030C000002EC000002CC000002AC0000018
S113003028C0000026C0000024C0000022C0000028
S113004020C000001EC000001CC000001AC0000038
S113005018C0000016C0000014C0000011241FBE08
S1130060CFEFD4E0DEBFCDBF11E0A0E0B1E0EAE81D
S1130070F2E002C005900D92A431B107D9F7B0D0D7
S113008002C1BECF880F991FFC01E050FF4F408191
S1130090518164307105ECF1CB010497EEEEF0E090
S11300A00297A0F59F01DF015496842F8F7060FFA3
S11300B017C090819F70908390818295807F892B57
S11300C080832B5F3F4FA217B307F9F052954295F7
S11300D04F7045275F704527842F8F70F901E9CF52
S11300E09081907F90839081892B80832B5F3F4FF9
S11300F0A217B30751F0529542954F7045275F7090
S11301004527842F8F70F901EBCF0895ECEEF0E0D2
S1130110C9CF62307105D4F3EDEEF0E0C3CF4F9256
S11301205F926F927F928F929F92AF92BF92CF9283
S1130130DF92EF92FF92CF93DF9392E0892E912C7E
S1130140A12CB12C35012AE0422E512CB401C50159
S1130150C5E0D0E09201A30158D069017A01CB0136
S11301606A3010F4BE018EDFB601C70100977040FB
S1130170604011F0219770F78FEF881A980AA80A47
S1130180B80A28EE821623E09206A104B104C9F04D
S113019082E0C82ED12CE12CF12CB401C5019601CA
S11301A0A70133D0672B682B692B31F32FEFC21AC9
S11301B0D20AE20AF20A8C149D04AE04BF0469F761
S11301C0C5CFDF91CF91FF90EF90DF90CF90BF909C
S11301D0AF909F908F907F906F905F904F90089515
S11301E0E1E6F0E080E88083108287EB8093E5000D
S11301F087E08093E6008FE08093E70080EC8093B3
S1130200E4008DDF80E090E00895052E97FB16F45E
S113021000940FD057FD05D014D007FC02D046F44B
S113022008C050954095309521953F4F4F4F5F4FF3
S1130230089590958095709561957F4F8F4F9F4F4E
S11302400895A1E21A2EAA1BBB1BFD010DC0AA1F13
S1130250BB1FEE1FFF1FA217B307E407F50720F02B
S1130260A21BB30BE40BF50B661F771F881F991FA6
S11302701A9469F760957095809590959B01AC01EF
S10D0280BD01CF010895F894FFCFEB
S113028A51151001111E111B500B411B411F110165
S107029A510F511B90
S9030000FC
