S01200002E2F72756E2F6D61696E2E737265638C
S11300002DC0000046C0000044C00000F3C2000040
S113001040C000003EC000003CC00000BAC2000066
S113002038C0000036C0000034C0000032C00000F8
S113003030C000002EC000002CC000002AC0000008
S113004028C0000026C0000024C0000022C0000018
S113005020C000001EC000001CC0000011241FBEF0
S1130060CFEFD4E0DEBFCDBF11E0A0E0B1E0E2E528
S1130070F7E002C005900D92A831B107D9F723E04B
S1130080A8E1B1E001C01D92A534B207E1F7EBD0BD
S11300905EC3B6CFD1E071D20A97E8F3C11105C0AF
S11300A0D093FE00C1E06ED2F6CF1092FE00C0E005
S11300B0FACF880F991FFC01EC55FF4F4081518105
S11300C064307105ECF1CB010497EEEEF0E0029799
S11300D0A0F59F01DF015496842F8F7060FF17C035
S11300E090819F70908390818295807F892B8083FB
S11300F02B5F3F4FA217B307F9F0529542954F700B
S113010045275F704527842F8F70F901E9CF9081CF
S1130110907F90839081892B80832B5F3F4FA21720
S1130120B30751F0529542954F7045275F704527AC
S1130130842F8F70F901EBCF0895ECEEF0E0C9CF76
S113014062307105D4F3EDEEF0E0C3CF80E885B9F9
S1130150C0E084E6482E512C612C712C53019AE0A6
S1130160892E912C1F99FECF1F9BFECF3ED26C018E
S1130170E12CF12C88E191E09ED1B601C7019201F6
S1130180A30166D29401A50163D2C901C09664E0BB
S113019070E08FDFB601C7019401A50159D2CB01EC
S11301A0C09665E070E085DF88E191E0BBD1809185
S11301B0EE00897FC11105C082608093EE00C1E02A
S11301C0D1CF84608093EE00C0E0CCCFEC01A12CB1
S11301D0B12C450183948C010F5F1F4F75012AE0F8
S11301E0C22ED12C88E191E066D1C630D10570F4DD
S11301F0B401C50124E630E040E050E029D2960184
S1130200A70126D2C901C096BE0153DF06301105ED
S113021048F4B401C5019601A7011AD2CB01C096D6
S1130220B80147DF88E191E07DD182E0880E911C1E
S1130230A11CB11C82E0482E512C612C712C8FEF33
S1130240481A580A680A780A84149504A604B7045C
S113025049F2B401C5019201A301FAD1672B682BBD
S1130260692B69F7E2CF2BD060E070E08AE490E07C
S113027038D060E070E086EA90E033D080E090E02F
S1130280A5DFCF93DF9300D0CDB7DEB789839A8300
S11302908091000190910101069618D2892B29F0D2
S11302A00F900F90DF91CF91089589819A81809367
S11302B000019093010161E070E0069627D2E1E627
S11302C0F0E080E88083108287EB8093E50087E08C
S11302D08093E6008FE08093E70080EC8093E40055
S11302E00895CF93DF9300D0CDB7DEB7F894209173
S11302F0200130912101232B09F472C020910201C5
S11303003091030129833A8321153105B1F1F901B3
S113031024813581209302013093030180839183EA
S11303206283738314821582CF010696CFD101971D
S113033029F189819A8187599F4FE981FA81868BB6
S1130340978B808F918F14821582E0912201F09116
S11303502301309709F478C0DF010480F581E02D92
S11303603097D1F789819A8114968D939D937894CF
S11303700F900F90DF91CF910895FFCF7894A091C3
S11303800001B0910101ED91FD918D919D9109952F
S1130390F8948091000190910101FC01148215826E
S11303A0E0910201F0910301309709F45AC0DF0192
S11303B00480F581E02D3097D1F714968D939D93A9
S11303C08091220190912301009709F449C0FC0116
S11303D024813581209322013093230152DFA9CF58
S11303E02EEF31E020939501309396012BE632E015
S11303F0209302023093030228ED32E020936F022F
S1130400309370021092DC021092DD0220E825B9CC
S11304102DBB20936C00109285001092840022E082
S113042020936F0020EC209380002DE02093810026
S113043027E831E0309389002093880021E020935D
S11304402001109221015ACF29813A81209322015F
S11304503093230178940F900F90DF91CF910895FA
S1130460FFCF8093020190930301AACF2091000152
S113047030910101F9011482158280912201909139
S11304802301FC01009789F0DF010480F581E02D50
S11304903097D1F714962D933D93FC012481358137
S11304A02093220130932301ECCE2115310509F468
S11304B0FFCFC901F2CFDC01F8948D919D91129781
S11304C0892B29F481E08D931D927894089580916D
S11304D0000190910101FC01148215821296ED91A4
S11304E0FD9114973097D1F0DF010480F581E02D60
S11304F03097D1F714968D939D938091220190911A
S11305002301009751F0FC012481358120932201BD
S113051030932301B6DE78940895FFCF12968D931D
S11305209D93EBCFF894FC01228133812115310591
S113053001F1F90144815581FC0142835383F9019E
S113054014821582E0912201F0912301309759F031
S1130550DF010480F581E02D3097D1F714962D93B7
S11305603D93789408952093220130932301789445
S11305700895108211827894089580911E019091BB
S11305801F010895F89410921F0110921E0178948F
S113059008951F920F920FB60F9211242F933F9339
S11305A04F935F936F937F938F939F93AF93BF9377
S11305B0EF93FF9380911E0190911F0101969093F8
S11305C01F0180931E0152DFFF91EF91BF91AF9104
S11305D09F918F917F916F915F914F913F912F9157
S11305E00F900FBE0F901F90189580911C01909151
S11305F01D0108951F920F920FB60F9211242F938D
S11306003F934F935F936F937F938F939F93AF9396
S1130610BF93EF93FF931F990AC080911C0190919F
S11306201D01019690931D0180931C011FDFFF9112
S1130630EF91BF91AF919F918F917F916F915F9156
S11306404F913F912F910F900FBE0F901F901895CF
S1130650052E97FB16F400940FD057FD05D014D047
S113066007FC02D046F408C050954095309521957A
S11306703F4F4F4F5F4F08959095809570956195CA
S11306807F4F8F4F9F4F0895A1E21A2EAA1BBB1BC9
S1130690FD010DC0AA1FBB1FEE1FFF1FA217B3074A
S11306A0E407F50720F0A21BB30BE40BF50B661F60
S11306B0771F881F991F1A9469F760957095809524
S11306C090959B01AC01BD01CF010895DC012D92F1
S11306D03D924D925D926D927D928D929D92AD92DE
S11306E0BD92CD92DD92ED92FD920D931D93CD932B
S11306F0DD93FF91EF918DB78D938EB78D938FB767
S11307008D93ED93FD93882799270994DC01CB0100
S113071081309105811D2D903D904D905D906D909F
S11307207D908D909D90AD90BD90CD90DD90ED909D
S1130730FD900D911D91CD91DD91ED91FD910D9067
S1130740F894FEBF0FBEEDBFED91FD910994F894AE
S1050750FFCFD5
S11307522401910151151001111E111B500B411B53
S10B0762411F1101511F511B3D
S9030000FC
